:020000040800F2
:1000000000000524B90B0008D5090008D70900082D
:10001000D9090008DB090008DD090008000000001C
:10002000000000000000000000000000DF090008E0
:10003000E109000800000000E3090008E5090008E4
:10004000090C0008090C0008090C0008090C00083C
:10005000090C0008090C0008090C0008090C00082C
:10006000090C0008090C0008090C0008090C00081C
:10007000090C0008090C0008090C0008090C00080C
:10008000090C0008090C0008090C0008ED0900081B
:10009000090C0008090C0008090C0008090C0008EC
:1000A000090C0008090C0008090C0008090C0008DC
:1000B000090C0008090C0008090C0008090C0008CC
:1000C000090C0008090C0008090C0008090C0008BC
:1000D000090C0008090C0008090C0008090C0008AC
:1000E000090C0008090C000800000000090C0008B9
:1000F000090C0008090C0008090C0008090C00088C
:10010000090C0008090C0008090C0008090C00087B
:10011000090C0008090C0008090C0008090C00086B
:10012000090C0008090C0008090C0008090C00085B
:10013000090C0008090C0008090C0008090C00084B
:1001400000000000000000000000000000000000AF
:10015000090C0008090C0008090C0008090C00082B
:10016000090C0008090C0008090C0008090C00081B
:10017000090C0008FD090008090C00080000000037
:10018000090C0008090C0008090C0008090C0008FB
:10019000090C0008090C0008090C0008090C0008EB
:1001A000090C0008090C0008090C000800000000F8
:1001B000090C0008090C0008090C0008090C0008CB
:1001C000090C0008090C00080000000000000000F5
:1001D0000000000000000000090C00080000000002
:1001E000000000000000000000000000000000000F
:1001F0000000000000000000090C0008090C0008C5
:10020000090C0008090C000800000000090C000897
:10021000090C0008090C0008090C0008090C00086A
:10022000090C000800000000090C00080000000094
:10023000090C0008090C000800000000090C000867
:10024000090C0008090C0008090C0008090C00083A
:10025000090C0008090C0008090C0008090C00082A
:10026000090C0008090C0008090C0008090C00081A
:10027000090C0008090C0008090C00080000000027
:10028000090C0008090C0008090C0008090C0008FA
:1002900000000000090C0008090C00080000000024
:1002A00000000000090C0008090C0008090C0008F7
:1002B000090C0008090C0008090C0008090C0008CA
:0C02C000090C0008090C0008090C0008DB
:1002CC0010B5054C237833B9044B13B10448AFF384
:1002DC0000800123237010BD2C05002400000000B9
:1002EC000873000808B5034B1BB103490348AFF36F
:1002FC00008008BD000000003005002408730008D1
:10030C0053B94AB9002908BF00281CBF4FF0FF3170
:10031C004FF0FF3000F074B9ADF1080C6DE904CE6C
:10032C0000F006F8DDF804E0DDE9022304B07047C4
:10033C002DE9F047089D04468E46002B4DD18A428C
:10034C00944669D9B2FA82F252B101FA02F3C2F1BF
:10035C00200120FA01F10CFA02FC41EA030E944050
:10036C004FEA1C48210CBEFBF8F61FFA8CF708FB71
:10037C0016E341EA034306FB07F199420AD91CEB49
:10038C00030306F1FF3080F01F81994240F21C817B
:10039C00023E63445B1AA4B2B3FBF8F008FB1033C3
:1003AC0044EA034400FB07F7A7420AD91CEB0404F8
:1003BC0000F1FF3380F00A81A74240F207816444C8
:1003CC00023840EA0640E41B00261DB1D44000234D
:1003DC00C5E900433146BDE8F0878B4209D9002DB1
:1003EC0000F0EF800026C5E9000130463146BDE83B
:1003FC00F087B3FA83F6002E4AD18B4202D38242A5
:10040C0000F2F980841A61EB030301209E46002D53
:10041C00E0D0C5E9004EDDE702B9FFDEB2FA82F2A8
:10042C00002A40F09280A1EB0C014FEA1C471FFA06
:10043C008CFE0126200CB1FBF7F307FB131140EAED
:10044C0001410EFB03F0884208D91CEB010103F1BA
:10045C00FF3802D2884200F2CB804346091AA4B27C
:10046C00B1FBF7F007FB101144EA01440EFB00FE50
:10047C00A64508D91CEB040400F1FF3102D2A645B5
:10048C0000F2BB800846A4EB0E0440EA03409CE754
:10049C00C6F12007B34022FA07FC4CEA030C20FA01
:1004AC0007F401FA06F31C43F9404FEA1C4900FA21
:1004BC0006F3B1FBF9F8200C1FFA8CFE09FB18119E
:1004CC0040EA014108FB0EF0884202FA06F20BD911
:1004DC001CEB010108F1FF3A80F08880884240F261
:1004EC008580A8F102086144091AA4B2B1FBF9F0A5
:1004FC0009FB101144EA014100FB0EFE8E4508D9A0
:10050C001CEB010100F1FF346CD28E456AD9023824
:10051C00614440EA0840A0FB0294A1EB0E01A14209
:10052C00C846A64656D353D05DB1B3EB080261EB77
:10053C000E0101FA07F722FA06F3F1401F43C5E951
:10054C00007100263146BDE8F087C2F12003D84087
:10055C000CFA02FC21FA03F3914001434FEA1C47C9
:10056C001FFA8CFEB3FBF7F007FB10360B0C43EABB
:10057C00064300FB0EF69E4204FA02F408D91CEB6B
:10058C00030300F1FF382FD29E422DD90238634469
:10059C009B1B89B2B3FBF7F607FB163341EA034109
:1005AC0006FB0EF38B4208D91CEB010106F1FF3858
:1005BC0016D28B4214D9023E6144C91A46EA00464F
:1005CC0038E72E46284605E70646E3E61846F8E6E1
:1005DC004B45A9D2B9EB020864EB0C0E0138A3E72A
:1005EC004646EAE7204694E74046D1E7D0467BE70B
:1005FC00023B614432E7304609E76444023842E783
:10060C00704700BF844641EA000313F003036DD129
:10061C00403A41D351F8043B40F8043B51F8043BB9
:10062C0040F8043B51F8043B40F8043B51F8043BC0
:10063C0040F8043B51F8043B40F8043B51F8043BB0
:10064C0040F8043B51F8043B40F8043B51F8043BA0
:10065C0040F8043B51F8043B40F8043B51F8043B90
:10066C0040F8043B51F8043B40F8043B51F8043B80
:10067C0040F8043B51F8043B40F8043B51F8043B70
:10068C0040F8043B51F8043B40F8043B51F8043B60
:10069C0040F8043B403ABDD2303211D351F8043B00
:1006AC0040F8043B51F8043B40F8043B51F8043B40
:1006BC0040F8043B51F8043B40F8043B103AEDD2AF
:1006CC000C3205D351F8043B40F8043B043AF9D200
:1006DC00043208D0D2071CBF11F8013B00F8013BD3
:1006EC0001D30B8803806046704700BF082A13D3E0
:1006FC008B078DD010F003038AD0C3F10403D21AF8
:10070C00DB071CBF11F8013B00F8013B80D331F82B
:10071C00023B20F8023B7BE7043AD9D3013A11F8AB
:10072C00013B00F8013BF9D20B7803704B78437016
:10073C008B7883706046704710B51648164B036073
:10074C0000238360C3600374437483740622426184
:10075C00052181610924C46102624262816208221E
:10076C00C26204220263436340218163C363016458
:10077C0042648164C264036542658365C36520215C
:10078C0001664366826600F0EBFC00B910BD00F018
:10079C0091F8FBE74805002400A0004010B5B6B066
:1007AC000446002131913291339134913591B82224
:1007BC0002A806F0E1FC2268264B9A4201D036B022
:1007CC0010BD4FF400420023CDE902230123049312
:1007DC00102305930223069307930893C0230993D0
:1007EC004FF000531D9302A802F0C8FF70BB1A4BC8
:1007FC00D3F8EC2042F48072C3F8EC20D3F8EC2050
:10080C0002F480720092009AD3F8E02042F00802C1
:10081C00C3F8E020D3F8E03003F008030193019B08
:10082C000323319302233293002433943494092309
:10083C00359331A9094801F06BF922462146132062
:10084C0000F006FB132000F039FBB8E700F032F89B
:10085C00CDE700BF00A0004000440258000C025835
:10086C0084B0134BD3F8E02042F08002C3F8E020B0
:10087C00D3F8E02002F080020192019AD3F8E02034
:10088C0042F00102C3F8E020D3F8E02002F00102AC
:10089C000292029AD3F8E02042F00802C3F8E0205A
:1008AC00D3F8E03003F008030393039B04B07047C4
:1008BC000044025872B6FEE700B59DB04C220021F0
:1008CC0009A806F059FC2022002101A806F054FCCE
:1008DC00022002F095F800230093254B9A6922F42C
:1008EC0040429A619B6903F440430093009B204B68
:1008FC009B6913F4005FFAD01E4A936A23F003033A
:10090C0043F002039362012209924FF4A0230A934D
:10091C00022312931393032114918921159116929A
:10092C000522179218930823199300231A934FF456
:10093C0080531B9309A802F095F8A8B93F230193A3
:10094C00032102910023039308230493402305936E
:10095C0006934FF480620792089301A802F072FC90
:10096C0020B91DB05DF804FBFFF7A4FFFFF7A2FF51
:10097C00004802580044025808B500F003FAFFF78B
:10098C009BFFFFF76DFFFFF7D7FE00F08FF806F027
:10099C0081F900F035F90121014806F0B9FBFAE7BD
:1009AC004805002482B0074BD3F8F42042F0020231
:1009BC00C3F8F420D3F8F43003F002030193019B45
:1009CC0002B0704700440258FEE7FEE7FEE7FEE780
:1009DC00FEE770477047704708B500F001FA08BD94
:1009EC0008B5024800F006FF08BD00BF480500240A
:1009FC0008B5024801F0C5FC08BD00BF601B00240F
:100A0C00224AD2F8883043F47003C2F88830204B65
:100A1C001B6803F00F03062B06D81D4A136823F03E
:100A2C000F0343F0070313601A4B1A6842F00102DC
:100A3C001A6000221A611968174A0A401A60144B8E
:100A4C001B6813F0080F06D0114A136823F00F032C
:100A5C0043F0070313600F4B00229A61DA611A62AC
:100A6C000E4999620E49D9620E4919635A6399630A
:100A7C00DA6319645A64196821F4802119601A66C2
:100A8C00094B43F2D2021A60704700BF00ED00E040
:100A9C0000200052004402587FEDF6EA00020202E8
:100AAC000000FF01800201010040005208B5174808
:100ABC00174B03604FF4E133436000238360C36042
:100ACC0003610C2242618361C361036243628362EE
:100ADC0004F00DFA70B900210C4804F080FA60B9EA
:100AEC0000210A4804F0A0FA50B9084804F058FA5A
:100AFC0048B908BDFFF7DEFEEDE7FFF7DBFEEFE7D9
:100B0C00FFF7D8FEF1E7FFF7D5FEF2E7E805002482
:100B1C000010014010B5B6B004460021319132915D
:100B2C00339134913591B82202A806F025FB226846
:100B3C001B4B9A4201D036B010BD01220023CDE9E7
:100B4C00022302A802F01AFE38BB164BD3F8F02091
:100B5C0042F01002C3F8F020D3F8F02002F010029B
:100B6C000092009AD3F8E02042F00102C3F8E02092
:100B7C00D3F8E03003F001030193019B4FF4C06301
:100B8C003193022332930023339334930723359309
:100B9C0031A9054800F0BCFFCDE7FFF78BFED4E789
:100BAC00001001400044025800000258DFF834D015
:100BBC00FFF726FF0C480D490D4A002302E0D458DC
:100BCC00C4500433C4188C42F9D30A4A0A4C00238B
:100BDC0001E013600432A242FBD306F0A9FAFFF73E
:100BEC00CBFE704700000524000000242C050024D7
:100BFC00147400082C05002468220024FEE7000071
:100C0C0000B58BB000230293039304930122059249
:100C1C00069347F6FF73079302A9124800F0EAFB0C
:100C2C00A0B900230093022211460E4800F026FCC6
:100C3C0078B90C4800F03DFC70B90022012109483C
:100C4C0000F080FD58B90BB05DF804FBFFF732FEE5
:100C5C00E7E7FFF72FFEECE7FFF72CFEEDE7FFF7DA
:100C6C0029FEF0E74805002410B58AB014461A4650
:100C7C000F2C00D90F2401910021029103910494AF
:100C8C000591069107910891099101A900F02BFC9F
:100C9C000AB010BD7047000010B58CB00446026855
:100CAC00536D23F0010353650D4B5A695A61026869
:100CBC00A3F500639A4209D02268536D43F00103F7
:100CCC005365074B5A695A610CB010BD6B4602AAAA
:100CDC00402100F043FC694602A8FFF7DBFFEBE77D
:100CEC0000A800407047000010B58CB004460268A4
:100CFC00536D23F0100353650D4B5A695A6102680A
:100D0C00A3F500639A4209D02268536D43F0100397
:100D1C005365074B5A695A610CB010BD6B4602AA59
:100D2C00412100F01BFC694602A8FFF7DBFFEBE753
:100D3C0000A80040104B1B780BB90120704710B570
:100D4C0004464FF47A70B0FBF3F30C4A1068B0FB16
:100D5C00F3F000F0C1F868B90F2C01D901200AE0BA
:100D6C00002221464FF0FF3000F072F8044B1C605B
:100D7C00002000E0012010BD080000240000002429
:100D8C000C00002410B5032000F050F802F060F9BC
:100D9C000F498B69C3F303230E4AD35C03F01F0383
:100DAC00D8408B6903F00F03D35C03F01F0320FAC8
:100DBC0003F3094A1360094B18600F20FFF7BAFFC1
:100DCC0010B10124204610BD0446FFF7EBFDF9E7F6
:100DDC00004402586C730008040000240000002436
:100DEC00034B1B78034A11680B441360704700BF18
:100DFC00080000247C060024014B1868704700BFD3
:100E0C007C06002438B50446FFF7F6FF0546B4F11E
:100E1C00FF3F02D0044B1B781C44FFF7EDFF401B37
:100E2C00A042FAD338BD00BF080000240649CB68A5
:100E3C0023F4E0631B041B0C000200F4E06003438A
:100E4C00024A1A43CA60704700ED00E00000FA0540
:100E5C0000B5174BDB68C3F30223C3F1070CBCF1DD
:100E6C00040F28BF4FF0040C03F1040EBEF1060F63
:100E7C0014D9033B4FF0FF3E0EFA0CFC21EA0C0197
:100E8C0099400EFA03F322EA03031943002807DB07
:100E9C000901C9B2074B19545DF804FB0023E9E7BB
:100EAC0000F00F000901C9B2034B1954F4E700BF5D
:100EBC0000ED00E000E400E014ED00E0002807DBAA
:100ECC0000F01F02400901239340024A42F82030EF
:100EDC00704700BF00E100E00138B0F1807F0BD219
:100EEC004FF0E0235861054AF02182F823100020CE
:100EFC00986107221A6170470120704700ED00E0ED
:100F0C0030B4446B0368D3F884106F4A114041EA43
:100F1C008401C3F884100368D3F8841021F47F0192
:100F2C00856B41EA0541C3F88410836B2344046844
:100F3C00D4F88810114041EA8301C4F88810046881
:100F4C00D4F8881021F4FE01C56B41EA0541C4F8C0
:100F5C008810C16B03EB41030468D4F8A010114056
:100F6C0041EA8301C4F8A0100468D4F8A01021F45D
:100F7C00FE01056C41EA0541C4F8A010016C446CFB
:100F8C0004FB01330468D4F8B010114041EA83012A
:100F9C00C4F8B0100468D4F8B01021F4FE01856CCC
:100FAC0041EA0541C4F8B010816CC46C04FB0133F8
:100FBC000468D4F8AC10114041EA8301C4F8AC10B9
:100FCC00016D446D04FB01330468D4F8F01011403A
:100FDC0041EA8301C4F8F0100468D4F8F01021F44D
:100FEC007C11856D41EA0541C4F8F010816D03EB6D
:100FFC0041030468D4F8C0100A4042EA8303C4F8E1
:10100C00C0300268D2F8C03023F47C13C16D43EABF
:10101C000143C2F8C0300268D2F8C03023F07C53D0
:10102C00016E43EA0163C2F8C030436B274A1A448D
:10103C009200C266836B02EB83030367C16B03EB05
:10104C00C1034367016C446C04FB01F103EB8103A6
:10105C008367816CC46C04FB01F103EB8103C367F0
:10106C00016D446D04FB01F103EB8103C0F880308A
:10107C00816D03EBC103C0F88430816EC46D01FB3C
:10108C0004FC03EB8C03C0F88830046E04FB01F104
:10109C0003EB8103C0F890300D498B420DD9D0F889
:1010AC009C3043F02003C0F89C30032380F8983028
:1010BC00012007E0002342F8043BD0F89030934223
:1010CC00F8D8002030BC70470300FFFF002B001045
:1010DC00FCD3004070B54C68FCB90D698C68254395
:1010EC000C6845EA84450E6ACC6944EA06648E694C
:1010FC0034434E693443CE6844EA0644D0F88460E5
:10110C00806E00FB03F306EB830E46F82350CEF8FB
:10111C0004400EF1080E002019E00C698D6825437F
:10112C000C68254345F08045DDE702EB000C9CF88C
:10113C0003409CF802301B0443EA04639CF8014012
:10114C0043EA0423145C23434EF8043B0430CB687D
:10115C00024CE35C8342E8D870BD00BF7C7300088E
:10116C0030B595B004464C22A04901A8FFF74AFAC5
:10117C00002C00F0388123689D4A934220D094F8CB
:10118C0098300BB32268936923F010039361FFF737
:10119C0033FE054623689A6912F0080F1AD0FFF740
:1011AC002BFE431B0A2BF5D9D4F89C3043F00103DA
:1011BC00C4F89C30032384F89830012015B030BD5E
:1011CC0003F580736360DAE784F899302046FFF703
:1011DC00E5FAD7E79A6942F001029A61FFF70CFE33
:1011EC00054623689A6912F0010F0FD1FFF704FE30
:1011FC00401B0A28F5D9D4F89C3043F00103C4F8FD
:10120C009C30032384F898300120D7E79A6942F088
:10121C0002029A61237C012B40D02268936943F02F
:10122C0040039361637C012B3ED02268936923F4C5
:10123C0080439361A37C012B3CD02268936943F4D7
:10124C00805393612268936923F44073A1680B4324
:10125C0093612268936923F0A40393612268136954
:10126C0023F010031361E368012B29D0002B2CD041
:10127C00022B00F09B802268936943F080039361FA
:10128C002268136943F010031361E368032B1CD12C
:10129C002268936943F02003936116E022689369F6
:1012AC0023F040039361BDE72268936943F48043C4
:1012BC009361BFE72268936923F480539361C1E77C
:1012CC002268936943F004039361A3695A1EE3698E
:1012DC00013B1B0243EA4263226A013A13436269EF
:1012EC00013A216843EA0243CB61A368B3F5407F1E
:1012FC0062D0236E33B12268D2F8C030616E0B43DA
:10130C00C2F8C030E36D226ED3420DD02168D1F803
:10131C00C83023F00703A26E14A800EB820252F827
:10132C004C2C1343C1F8C830236C6BB12168D1F835
:10133C00BC3023F00703626C14A800EB820252F855
:10134C004C2C1343C1F8BC30A36C73B12168D1F899
:10135C00BC3023F07003E26C14A800EB820252F84C
:10136C004C2C43EA0213C1F8BC30236D73B12168D5
:10137C00D1F8BC3023F4E063626D14A800EB820258
:10138C0052F84C2C43EA0223C1F8BC302268184BAB
:10139C009A4222D00023C4F89430C4F89C30012324
:1013AC0084F898302046FFF7ABFD07E72268936975
:1013BC0043F02003936188E7A36A013BE26A013A98
:1013CC0043EA0223226B013A43EA0213626A013AAE
:1013DC00216843EA0243CB608BE76268936823F091
:1013EC0003039360D6E70120E8E600BF20730008F2
:1013FC0000A0004090F89830013BDBB2012B07D9DC
:10140C00D0F89C3043F00203C0F89C3001207047A8
:10141C00CB680A68D2B9072B0ED08A68DB0643EA80
:10142C0082730A6943EA02434A691343C26E4968EC
:10143C0042F82130002070470A69CB691B0243EA4D
:10144C0002438A69134343F06053EFE710B40A690F
:10145C0042EA4372072B0FD04B698C6843EA8473C2
:10146C00006F496800EBC10C40F83120CCF8043017
:10147C0000205DF8044B70478B69F1E790F898C039
:10148C005FFA8CFCBCF1010F07D0D0F89C3043F014
:10149C000403C0F89C3001207047920042EA01120C
:1014AC0042EA4302036800990A43C3F880200020F3
:1014BC00704790F89830DBB2012B07D0D0F89C30F5
:1014CC0043F00403C0F89C3001207047022380F8DD
:1014DC0098300268936923F0010393610023C0F8EC
:1014EC009C301846704738B5044690F89830DBB2FB
:1014FC00022B2BD10368D3F8C00010F07C5F0CD00A
:10150C00D3F8C40010F4001F0FD0D4F89C3043F46F
:10151C000073C4F89C3001201FE0D4F89C3043F0D9
:10152C002003C4F89C30012017E0D3F8C450C5F355
:10153C0004452B462046FFF7CDFD22680123AB4026
:10154C00C2F8D030C4F89430002006E0D0F89C30BB
:10155C0043F00803C0F89C30012038BD90F898C0C7
:10156C005FFA8CFCBCF1020F40F0E28070B54029B0
:10157C000CD041293DD0046D8C426DD8D0F89C30F4
:10158C0043F02003C0F89C300120C3E00468D4F879
:10159C00A05015F4FE0F0CD0D4F8A45015F07F0F0A
:1015AC000FD1D0F89C3043F48073C0F89C300120EC
:1015BC00B0E0D0F89C3043F02003C0F89C30012000
:1015CC00A8E0D4F8A450C5F3006615F0807F04D0D1
:1015DC00D4F8A060F60F00D10026D4F8A440C4F3D0
:1015EC0005242644456F446C06FB04F405EB840C7F
:1015FC0039E00468D4F8B05015F4FE0F0CD0D4F8D0
:10160C00B45015F07F0F0FD1D0F89C3043F4807399
:10161C00C0F89C3001207DE0D0F89C3043F02003D2
:10162C00C0F89C30012075E0D4F8B450C5F30066C6
:10163C0015F0807F04D0D4F8B060F60F00D10026EE
:10164C00D4F8B440C4F305242644856FC46C06FB5F
:10165C0004F405EB840C06E0C56F446D01FB04F447
:10166C0005EB840C0026DCF8004004F08044546048
:10167C0074BBDCF80040C4F38A441460DCF800400E
:10168C0004F000549460DCF8004004F00044146151
:10169C00BCF80440D461BCF8064004F00F04D460DC
:1016AC00DCF8044004F480145461DCF8044004F4C5
:1016BC00001494619CF8074004F07F041462DCF879
:1016CC000440E40F54620CF1080E4FF0000C0BE0D8
:1016DC00DCF8004024F060441460CFE71EF80C40A6
:1016EC0003F80C400CF1010CD468154D2C5D6445CD
:1016FC00F4D840290AD041290DD01F290FD80268EF
:10170C00012303FA01F1C2F8981002E00368C3F850
:10171C00A860002070BD0368C3F8B860F9E701F059
:10172C001F010268012303FA01F1C2F89C10F0E7D3
:10173C00D0F89C3043F00803C0F89C30012070476F
:10174C007C73000890F89830013BDBB2012B07D971
:10175C00D0F89C3043F00203C0F89C300120704755
:10176C0010B403689C6D0C4224D1DC6D44F0010470
:10177C00DC6511F4007F05D00468D4F8E030134325
:10178C00C4F8E03011F4806F05D00468D4F8E4306C
:10179C001A43C4F8E4200068436D0C4A0A40134312
:1017AC0043650B4A536943EA9171516100205DF81E
:1017BC00044B70479C6D31EA040402D00324DC65B1
:1017CC00D7E7DC6D44F00204DC65D2E7FFFFCF3FC6
:1017DC0000A80040704770477047704770477047CB
:1017EC007047704770477047704770477047704735
:1017FC00704700002DE9F04F83B00446B04B1A69D6
:10180C005B699B0703EA8273019303681A6D02F408
:10181C00704A5A6D0AEA020A1A6D02F00F095A6DE3
:10182C0009EA02091A6D02F0F0085A6D08EA02087A
:10183C001E6D06F071565A6D16401F6D07F06077DD
:10184C005A6D17405D6DD3F850B015F4807F02D0FF
:10185C001BF4807F64D115F4806F02D01BF4806F71
:10186C0067D1019B002B74D1BAF1000F7CD1B9F177
:10187C00000F40F08580B8F1000F40F08D8015F41A
:10188C00006F03D01BF4006F40F0928015F4007FC2
:10189C0003D01BF4007F40F0968015F4002F03D08A
:1018AC001BF4002F40F09F8015F4803F03D01BF4F5
:1018BC00803F40F0A38015F4802F03D01BF4802FC1
:1018CC0040F0A78015F4003F0FD01BF4003F0CD064
:1018DC0023684FF400321A65794B00221A61D4F850
:1018EC009C3043F08003C4F89C30002F40F09C8067
:1018FC004EB123681E65B20F714B1A61D4F89C303F
:10190C001E43C4F89C6022686E4B9A4200F096808D
:10191C00D4F89C30002B40F0F78003B0BDE8F08F7A
:10192C004FF480721A65664B00221A61FFF75AFF5A
:10193C0091E72368D3F8DC10D3F8E4204FF48060EF
:10194C0018655F4B0020186111402046FFF746FFD9
:10195C0087E7236800221A6501998A0F584B1A6190
:10196C002046FFF737FF7FE72368C3F850A04FEA04
:10197C009A72534B1A6151462046FFF72CFF76E7BB
:10198C002368C3F850904FEA99724D4B1A6149463F
:10199C002046FFF781F96EE72368C3F850804FEAC1
:1019AC009872474B1A6141462046FFF79DF966E74E
:1019BC0023684FF400621A65414B00221A612046DD
:1019CC00FFF70AFF62E72368D3F8D810D3F8E020BA
:1019DC004FF4007018653A4B0020186111402046F6
:1019EC00FFF7FBFE59E723684FF400221A65344BCE
:1019FC0000221A612046FFF7F2FE55E723684FF4E8
:101A0C0080321A652E4B00221A612046FFF7E8FE41
:101A1C0051E723684FF480221A65294B00221A6182
:101A2C002046FFF7DEFE4DE723681F65BA0F244BF7
:101A3C001A6139462046FFF7D7FE59E763689A6862
:101A4C0012F0030F3FF464AF196A01F00F015A6AE8
:101A5C00186A00F03008586A08EA00081F6A07F490
:101A6C00C077586A07401E6A06F4FC46586A06405E
:101A7C001D6A05F4F025586A0540D3F82490D3F874
:101A8C0020A0114020D1B8F1000F22D119F0400F45
:101A9C0002D01AF0400F24D17FBB36B163681E62AE
:101AAC00D4F89C301E43C4F89C60002D3FF430AF3A
:101ABC0063681D62D4F89C301D43C4F89C5027E722
:101ACC0000A8004000A0004019622046FFF78DFEE0
:101ADC00D9E76368C3F8208041462046FFF786FEAD
:101AEC00D4E76368D96BDA6B4020186202F03F02CE
:101AFC00090C2046FFF77BFECEE763681F62394670
:101B0C002046FFF775FEC8E72046FFF76CFE04E79A
:101B1C00F0B583B000236BE085685E000324B4400D
:101B2C0025EA0405CC68B4402C438460446824EA5C
:101B3C000C0C4C68C4F300149C4044EA0C04446044
:101B4C0068E0DD08083550F8256003F007044FEA1B
:101B5C00840C0F2404FA0CF426EA040E0C6904FA23
:101B6C000CF444EA0E0440F825406BE0092400E034
:101B7C00002404FA0EF42C430CF1020C664D45F8CB
:101B8C002C404FF0B0442568D44325EA02064F6838
:101B9C0017F4801F01D042EA05064FF0B0452E60C5
:101BAC006D6804EA05064F6817F4001F01D042EA7D
:101BBC0005064FF0B0456E60D5F8845004EA050672
:101BCC004F6817F4003F01D042EA05064FF0B045CC
:101BDC00C5F88460D5F880502C404E6816F4803FD0
:101BEC0001D042EA05044FF0B042C2F88040013304
:101BFC000A6832FA03F400F08C804FF0010C0CFAF6
:101C0C0003FC1CEA0202F2D04C6804F00304013C11
:101C1C00012C81D94C6804F00304032C0CD0C4684B
:101C2C005D004FF0030C0CFA05FC24EA0C0C8C68DC
:101C3C00AC4044EA0C04C4604C6804F00304022C6D
:101C4C003FF47FAF04684FEA430E4FF0030C0CFADD
:101C5C000EFC24EA0C0C4C6804F0030404FA0EF499
:101C6C0044EA0C0404604C6814F4403FBFD02B4C85
:101C7C00D4F8F45045F00205C4F8F450D4F8F4400C
:101C8C0004F002040194019C4FEA930C0CF1020540
:101C9C00214C54F8255003F003044FEA840E0F2412
:101CAC0004FA0EF425EA04051D4CA0423FF460AF83
:101CBC0004F58064A0421ED004F58064A0421CD0C0
:101CCC0004F58064A0421AD004F58064A04218D0B8
:101CDC0004F58064A04216D004F58064A04214D0B0
:101CEC0004F58064A04212D004F50064A0423FF4D5
:101CFC003DAF0A243DE701243BE7022439E70324E6
:101D0C0037E7042435E7052433E7062431E70724B5
:101D1C002FE703B0F0BD00BF000400580044025888
:101D2C00000002582DE9F04383B0D0F8008001EB9D
:101D3C00C10300EB83039A6A5B6A9A4254D8074644
:101D4C000C469B1A01EBC10200EB8202D2699A424B
:101D5C0000D31A4602F103094FEA990915E006F17E
:101D6C0003094FEA9909BB7904EBC40507EB850518
:101D7C00296A0093B3B2E2B2404603F0B2FC2B6A7C
:101D8C0033442B62AB6A3344AB6208EB441303F568
:101D9C0010639B699BB24B4512D304EBC40207EB57
:101DAC008202916A536A99420AD24BB15B1A04EBD4
:101DBC00C40207EB8202D6699E42D0D31E46CEE700
:101DCC0004EBC40007EB80077A6ABB6A9A420FD80F
:101DDC0004F00F040123A340D8F8344824EA030488
:101DEC00C8F83448002000E0012003B0BDE8F083BF
:101DFC000020FAE730B583B000287AD0044690F87A
:101E0C009534ABB1032384F89534206803F020FAA1
:101E1C00237C8DF80030231D0ECB206803F04EF987
:101E2C0058B1022384F895340125284603B030BDFF
:101E3C0080F8943405F01CF8E4E70021206803F0E6
:101E4C006BFE024608B9034617E0022384F895346A
:101E5C000125EAE703EBC30104EB8101012048757E
:101E6C000B75CB8500200876C861086203EBC301B3
:101E7C0004EB810148620133DBB220799842E9D846
:101E8C0016E002EBC20304EB8303002183F8551226
:101E9C0083F8542283F85812C3F85C12C3F860120A
:101EAC0002EBC20304EB8303C3F864120132D2B217
:101EBC009042E6D8237C8DF80030231D0ECB206891
:101ECC0003F01CFA054658B900236374012384F807
:101EDC009534237B012B08D0206803F0DAFDA4E7AE
:101EEC00022384F8953401259FE7204600F072FD0B
:101EFC00F2E7012599E7036890F89424012A1AD097
:101F0C0010B50446012280F89424DA6812F0400FD0
:101F1C0002D0427B012A09D0206803F093F9206893
:101F2C0003F0A9FD002084F8940410BD9A6B42F4D0
:101F3C0080329A63F0E702207047000070B50446C7
:101F4C000D460068066C00EB411303F530639A688C
:101F5C00A179012911D038498E4256D03DB905EBF3
:101F6C00C50304EB8303D3F86432002B5ED0E9B2D3
:101F7C00204604F0BFFF002070BD12F0080F09D0FE
:101F8C002E498E42F7D912F4004FF4D04FF4004290
:101F9C009A60F0E712F0200F02D020229A60EAE754
:101FAC0012F0280FE7D125498E4206D912F4004FC2
:101FBC0003D04FF400429A60DDE705EBC50204EB59
:101FCC008202D2F874121B69C3F31203CB1AC2F843
:101FDC0068327DB905EBC50204EB8202D2F86422AB
:101FEC006AB105EBC50204EB8202D2F860120B4415
:101FFC00C2F86032E9B2204604F07CFFBBE704F281
:10200C009C42012103F0CAFDF4E712F4004F03D007
:10201C004FF400429A60AEE712F0200F01D020225C
:10202C009A60E9B2204604F065FFA4E704F29C42F2
:10203C00002103F0B3FD9AE70A31544F0A30544F94
:10204C0038B5044603681D6C03EB4113D3F8081B29
:10205C000E4A954207D903F5306311F4004F02D0B4
:10206C004FF400429A60204604F03CFF074B9D421F
:10207C0002D9A379012B01D0002038BD04F29C4277
:10208C000121206803F08AFDF6E700BF0A30544FA7
:10209C0090F89434012B0CD010B50446012380F831
:1020AC0094344174006803F0D6FC002084F8940446
:1020BC0010BD0220704738B505468C4611F0800FD4
:1020CC0029D101F00F0E0EEBCE04A40004F514740C
:1020DC000444211D0EEBCE0E00EB8E0E00208EF86C
:1020EC0055020CF00F0C81F800C08A600B714A7815
:1020FC000AB1A1F81AC0022B1CD095F89434012B0C
:10210C001BD0012385F89434286803F0CDF9002006
:10211C0085F8940438BD01F00F0000EBC001890074
:10212C0010312944043100EBC00005EB8000012480
:10213C004475D6E700234B71DFE70220EAE710B5C0
:10214C0004460A4611F0800F20D101F00F0000EB7D
:10215C00C0039B0003F514732344191D00EBC0004E
:10216C0004EB8000002380F8553202F00F020A7055
:10217C0094F89434012B18D0012384F894342068FB
:10218C0003F0E0F9002084F8940410BD01F00F0076
:10219C0000EBC0039B0010332344191D00EBC0005F
:1021AC0004EB800001234375DFE70220EDE710B557
:1021BC00144601F00F0C0CEBCC01890001F51471E5
:1021CC00014404310CEBCC0E00EB8E0ECEF86022E9
:1021DC00CEF864320023CEF868328EF855328EF881
:1021EC0054C28279012A04D0006803F091FA0020CD
:1021FC0010BDCEF87042F7E701F00F0101EBC10101
:10220C0000EB8101D1F86802704710B5144601F05B
:10221C000F0C0CEBCC0189001031014404310CEB98
:10222C00CC0E00EB8E0ECEF82020CEF824300023FE
:10223C00CEF8283001238EF815308EF814C0827930
:10224C009A4204D0006803F063FA002010BDCEF867
:10225C003040F7E738B501F00F050279AA4238D3C0
:10226C0004460B4611F0800F1FD101EBC101890010
:10227C0001F514710144043103EBC30300EB830338
:10228C00002283F8552201238B700D7094F894343E
:10229C00012B20D0012384F89434206803F080FBB8
:1022AC0085B1002084F8940438BD05EBC501890084
:1022BC0010310144043105EBC50300EB830301220B
:1022CC005A75E0E704F29C42A179206803F066FCA1
:1022DC00E7E70120E8E70220E6E701F00F030279C7
:1022EC009A4230D310B5044611F0800F1ED103EB87
:1022FC00C301890001F514710144043103EBC302DD
:10230C0000EB8202002082F8550200228A700B70CA
:10231C0094F89434012B18D0012384F89434206859
:10232C0003F06BFB002084F8940410BD03EBC30195
:10233C00890010310144043103EBC30200EB82022B
:10234C0001205075E1E7012070470220EDE708B548
:10235C0011F0800F0CD101F00F0101EBC1018900CC
:10236C0001F5147101440431006803F05BF908BDF8
:10237C0001F00F0101EBC10189001031014404315E
:10238C00F2E72DE9F04F83B004460568284603F0C8
:10239C00BFFB10B103B0BDE8F08F0646206803F018
:1023AC0086FB0028F6D005F50067BB68C3F30D2348
:1023BC00C4F8D434206803F07AFB10F0020F04D078
:1023CC002268536903F002035361206803F06FFB2A
:1023DC0010F0100F14D02268936923F0100393614E
:1023EC00D5F8208008F00F09C8F34343022B69D0BD
:1023FC00062B00F08D802268936943F010039361E3
:10240C00206803F054FB10F4002F40F093802068F8
:10241C0003F04DFB10F4802F40F0FC80206803F09B
:10242C0046FB0028C0F27D81206803F040FB10F4CD
:10243C00006F09D0BB6813F0010F40F08A8122684D
:10244C00536903F400635361206803F030FB10F010
:10245C00006F15D02268536903F00063536194F840
:10246C00CC34002B40F07981012184F8CC14236802
:10247C005B6DC3F38303C4F8D034204600F0BEFA7E
:10248C00206803F014FB10F4805F40F06A81206830
:10249C0003F00DFB10F4005F40F0B681206803F0F0
:1024AC0006FB10F0080F40F0C781206803F0FFFA1C
:1024BC0010F0800F00F0DA81AB6923F08003AB6180
:1024CC000126C3E147F6F07318EA030F93D04FEAE5
:1024DC00181B4FEAC903019309EBC90A04EB8A0ADA
:1024EC00C8F30A12DAF86012284603F02FFACBF37D
:1024FC000A0BDAF860325B44CAF86032019B4B4439
:10250C0004EB8303D3F868325B44CAF8683272E791
:10251C00082204F29C41284603F018FAC8F30A1862
:10252C0009EBC90204EB8202D2F868324344C2F8C8
:10253C00683260E7206803F0BEFA8046B14635E0A9
:10254C0005EB49130122C3F8082B49462046FFF737
:10255C00F5FC3CE005EB49130822C3F8082B49466F
:10256C002046FFF76DFD35E009EBC90304EB83034F
:10257C0093F85732012B41D005EB49130222C3F8D3
:10258C00082B1AF0200F04D005EB49132022C3F8B6
:10259C00082B1AF4005F05D005EB49134FF40052D9
:1025AC00C3F8082B09F101094FEA5808B8F1000FDC
:1025BC003FF42DAF18F0010FF4D05FFA89FB5946A8
:1025CC00206803F088FA824610F0010FB8D11AF097
:1025DC00080FBFD11AF0100F04D005EB49131022CD
:1025EC00C3F8082B1AF0020FCBD06B6913F0800FD5
:1025FC00BAD07B6843F480637B60B5E709EBC90311
:10260C0004EB8303002283F857225946204604F03A
:10261C00C1FCB1E7206803F056FA8046B14625E0CC
:10262C005946204604F072FC1AF0080F04D005EB52
:10263C0049130822C3F808291AF0100F04D005EB2F
:10264C0049131022C3F808291AF0400F04D005EBE7
:10265C0049134022C3F808291AF0020F40D11AF08E
:10266C00800F59D109F101094FEA5808B8F1000F50
:10267C003FF4D4AE18F0010FF4D05FFA89FB594641
:10268C00206803F031FA824610F0010FCCD009F02B
:10269C000F03012101FA03F27B6B23EA02037B6334
:1026AC0005EB4913C3F80819A3798B42B8D109EB90
:1026BC00C90304EB8303D9691A6A0A441A62B9F193
:1026CC00000FADD109EBC90304EB83035B6A002B4C
:1026DC00A6D104F29C420121206803F05FFA9FE727
:1026EC004946284602F0BAFD09EBC90304EB830303
:1026FC00DB7D012B05D005EB49130222C3F8082919
:10270C00ADE709EBC90304EB83030022DA755946E4
:10271C00204604F045FCEEE749462046FFF702FB55
:10272C00A0E77B6823F001037B6094F8CC34012B89
:10273C0008D0204604F028FC2268536903F00043BB
:10274C00536171E6002184F8CC14204600F056F950
:10275C00F2E7204604F000FC71E6204604F0FCFB96
:10276C008EE67B6823F001037B601021206802F069
:10277C0075FD1AE005EB46134FF67F31C3F80819C7
:10278C00D3F8002922F40012C3F80029C3F8081B5F
:10279C00D3F8002B22F40012C3F8002BD3F8002B33
:1027AC0042F00062C3F8002B01362379B342E1D822
:1027BC00FB6943F00113FB61E37BDBB1D7F8843099
:1027CC0043F00B03C7F884307B6C43F00B037B6442
:1027DC00D5F8003823F4FE63C5F8003804F29C42A7
:1027EC00A179206803F0DAF92268536903F4805365
:1027FC0053614CE67A6942F22B0313437B613B69CC
:10280C0043F00B033B61E3E7206803F0B7F9206862
:10281C0002F03AFEE071266800F05EFE0146E279B5
:10282C00304602F09DFC204604F081FB226853697F
:10283C0003F40053536131E6204604F072FB226826
:10284C00536903F0080353612FE601362379B34231
:10285C000CD906EBC60304EB830393F85732012B18
:10286C00F3D1F1B22046FFF772FDEEE7206803F0DA
:10287C001EF910F4801F25D1206803F018F910F40C
:10288C00001F59D0012326E001362379B3421BD90E
:10289C0005EB4613D3F8002906EBC60304EB8303C0
:1028AC001B7E012BF0D1002AEEDA06EBC60304EBFB
:1028BC0083030122DA7566F07F01C9B22046FFF767
:1028CC0046FDE1E70126E0E72268536903F4801333
:1028DC005361D1E7013322799A4228D905EB43128F
:1028EC00D2F8001B03EBC30204EB820292F85822CD
:1028FC00012AEFD10029EDDA01F48031D4F8D42487
:10290C0002F001029142E5D103EBC30204EB820217
:10291C00012182F85712AA6942F08002AA616A6901
:10292C0012F0800FD6D17B6843F400737B60226871
:10293C00536903F400135361206803F0B8F810F0E6
:10294C00804F10D1206803F0B2F810F0040F3FF460
:10295C0021AD23685D6815F0040F0DD12268536812
:10296C002B43536016E5204604F020FB2268536984
:10297C0003F080435361E5E7204604F01DFBEDE7CF
:10298C0010B40468606A31B940EA0240A0620020C9
:10299C005DF8044B70478C46A36A00EB1340002390
:1029AC0008E003F1400104EB8101496800EB1140A0
:1029BC000133DBB20CF1FF318B42F2D340EA02401F
:1029CC000CF13F0104EB81014860E0E703685962B8
:1029DC0000207047034602680121C0F8D81400207B
:1029EC0083F8CC04936943F000639361516D024BFF
:1029FC000B435365704700BF030000107047000085
:102A0C00134BDB6813F0040F07D1114BDB6803F099
:102A1C00070383421AD00120704710B50C4AD368C3
:102A2C0023F007031843D060FEF7E6F90446084B81
:102A3C005B6813F4005F07D1FEF7DEF9001BB0F5FD
:102A4C007A7FF4D9012000E0002010BD00207047EF
:102A5C0000480258024AD36843F08073D360704731
:102A6C0000480258002800F0D78238B504460368A5
:102A7C0013F0010F25D0A04A136903F03803926AB2
:102A8C00102B15D0182B0FD06368B3F5803F3FD0B7
:102A9C00002B53D1984B1A6822F480321A601A68B2
:102AAC0022F480221A6038E002F00302022AEBD1F1
:102ABC00914B1B6813F4003F03D06368002B00F0AC
:102ACC00AD82236813F0020F00F088808A4A1369E4
:102ADC00926A13F038035AD0182B55D0E368002BA8
:102AEC0000F0A98084490A6822F0190213430B6094
:102AFC00FEF782F90546804B1B6813F0040F40F07B
:102B0C009180FEF779F9401B0228F4D903208CE25E
:102B1C00794A136843F48033136063682BB3FEF770
:102B2C006BF90546744B1B6813F4003FC9D1FEF7D3
:102B3C0063F9401B6428F5D9032076E2B3F5A02F86
:102B4C0009D06D4B1A6822F480321A601A6822F48C
:102B5C0080221A60E1E7684B1A6842F480221A60FE
:102B6C001A6842F480321A60D7E7FEF745F9054639
:102B7C00614B1B6813F4003FA3D0FEF73DF9401BDB
:102B8C006428F5D9032050E212F0030FA6D15A4B5A
:102B9C001B6813F0040F03D0E368002B00F0408295
:102BAC00554A136823F01903E1680B431360FEF7D1
:102BBC0023F90546504B1B6813F0040F06D1FEF7A2
:102BCC001BF9401B0228F5D903202EE24A4A536810
:102BDC0023F0FE43216943EA01635360236813F039
:102BEC00100F51D0444A136903F03803926A082B32
:102BFC0039D0182B33D0E369002B69D03E4A1368C7
:102C0C0043F080031360FEF7F7F805463A4B1B6858
:102C1C0013F4807F53D1FEF7EFF8401B0228F5D94F
:102C2C00032002E2344A536823F0FE43216943EA4D
:102C3C0001635360D2E7304A136823F00103136039
:102C4C00FEF7DAF805462C4B1B6813F0040FC5D0C1
:102C5C00FEF7D2F8401B0228F5D90320E5E102F07B
:102C6C000302012AC7D1244B1B6813F4807F03D0C5
:102C7C00E369802B40F0D6811F4AD36823F07C5344
:102C8C00216A43EA0163D360236813F0080F49D02B
:102C9C006369002B32D0184A536F43F0010353671A
:102CAC00FEF7AAF80546144B5B6F13F0020F39D1EF
:102CBC00FEF7A2F8401B0228F5D90320B5E10E4A15
:102CCC00D36823F07C53216A43EA0163D360DBE7CA
:102CDC00094A136823F080031360FEF78DF805464C
:102CEC00054B1B6813F4807FCED0FEF785F8401B94
:102CFC000228F5D9032098E1004402589D4A536FED
:102D0C0023F001035367FEF777F80546994B5B6F89
:102D1C0013F0020F06D0FEF76FF8401B0228F5D90E
:102D2C00032082E1236813F0200F29D0A3699BB103
:102D3C00904A136843F480531360FEF75DF8054620
:102D4C008C4B1B6813F4005F1AD1FEF755F8401B2F
:102D5C000228F5D9032068E1864A136823F48053CE
:102D6C001360FEF749F80546824B1B6813F4005FAD
:102D7C0006D0FEF741F8401B0228F5D9032054E198
:102D8C00236813F0040F21D1636A002B00F04C81EF
:102D9C00784A126902F03802182A00F0F380022BEC
:102DAC0075D0744A136823F080731360FEF724F80F
:102DBC000446704B1B6813F0007F00F0D880FEF7C0
:102DCC001BF8001B0228F4D903202EE16A4A136871
:102DDC0043F480731360FEF70FF80546664B1B68CF
:102DEC0013F4807F06D1FEF707F8401B6428F5D951
:102DFC0003201AE1A368012B0AD00BBB5D4B1A6FA1
:102E0C0022F001021A671A6F22F004021A6704E01A
:102E1C00584A136F43F001031367A36833B3FDF7EC
:102E2C00EBFF0546534B1B6F13F0020FACD1FDF7B4
:102E3C00E3FF401B41F288339842F3D90320F4E0BE
:102E4C00052B09D04B4B1A6F22F001021A671A6F2F
:102E5C0022F004021A67E0E7464B1A6F42F00402B4
:102E6C001A671A6F42F001021A67D6E7FDF7C4FF22
:102E7C000546404B1B6F13F0020F85D0FDF7BCFFCE
:102E8C00401B41F288339842F3D90320CDE0394AF4
:102E9C00136823F080731360FDF7AEFF0546354BC6
:102EAC001B6813F0007F06D0FDF7A6FF401B02281D
:102EBC00F5D90320B9E02F4B996A304A0A40A16A30
:102ECC00E06A41EA00110A439A62226B013AC2F3AA
:102EDC000802616B0139490289B20A43A16B0139BD
:102EEC00090401F4FE010A43E16B0139090601F002
:102EFC00FE410A431A63DA6A22F00102DA62596B64
:102F0C001F4A0A40A16C42EAC1025A63DA6A22F0F3
:102F1C000C02216C0A43DA62DA6A22F00202616C5A
:102F2C000A43DA62DA6A42F48032DA62DA6A42F42A
:102F3C000032DA62DA6A42F48022DA62DA6A42F049
:102F4C000102DA621A6842F080721A60FDF754FFCF
:102F5C000446084B1B6813F0007F06D1FDF74CFFAD
:102F6C00001B0228F5D903205FE000205DE0002063
:102F7C005BE000BF00440258004802580CFCFFFF05
:102F8C000700FFFF30498A6A086B012B4ED002F014
:102F9C000303A16A8B424BD1C2F30512E36A9A4236
:102FAC0048D1C0F30802236B013B9A4244D1C0F3D1
:102FBC004622636B013B9A4240D1C0F30642A36B9D
:102FCC00013B9A423CD1C0F30660E36B013B984253
:102FDC0038D11D4B5B6BC3F3CC03A26C9A4201D16D
:102FEC00002022E0184AD36A23F00103D362FDF7D4
:102FFC0003FF0546FDF700FFA842FBD0124A516BB8
:10300C00124B0B40A16C43EAC1035363D36A43F0E8
:10301C000103D362002008E001207047012004E086
:10302C00012002E0012000E0002038BD0120FCE777
:10303C000120FAE70120F8E70120F6E70120F4E788
:10304C000120F2E70120F0E7004402580700FFFFDF
:10305C00744B1B6903F03803102B00F0DE80182B27
:10306C0010D00BB1704870476E4B1B6813F0200FDB
:10307C0000F0D5806B4B1868C0F3C1006B4B23FA82
:10308C0000F0704710B4674A916A01F00301946A2A
:10309C00C4F30510D36A03F0010C536BC3F3CC03D8
:1030AC000CFB03F307EE903AF8EE677A14F47C7F8E
:1030BC0000F09380012965D0022900F09180E1B1E4
:1030CC0007EE100AF8EE476A9FED596A86EE267AEB
:1030DC00544B1B6BC3F3080306EE903AF8EE666A8A
:1030EC009FED546A67EE867A76EEA77AF7EE006A61
:1030FC0077EEA67A27EE277A60E0136813F0200F9C
:10310C0023D011461268C2F3C102484BD34007EEDC
:10311C00103AF8EE476A07EE100AB8EE476A86EEE8
:10312C00867A0B6BC3F3080306EE903AF8EE666AE8
:10313C009FED406A67EE867A76EEA77AF7EE006A24
:10314C0077EEA67A27EE277A38E007EE100AF8EE2B
:10315C00476A9FED396A86EE267A324B1B6BC3F3B6
:10316C00080306EE903AF8EE666A9FED326A67EE57
:10317C00867A76EEA77AF7EE006A77EEA67A27EED5
:10318C00277A1BE007EE100AF8EE476A9FED286AD3
:10319C0086EE267A234B1B6BC3F3080306EE903A9C
:1031AC00F8EE666A9FED236A67EE867A76EEA77A6A
:1031BC00F7EE006A77EEA67A27EE277A194B1B6B8F
:1031CC00C3F34623013307EE903AF8EE677AC7EE65
:1031DC00276AFCEEE67A17EE900A5DF8044B70470E
:1031EC0007EE100AF8EE476A9FED146A86EE267A0F
:1031FC000C4B1B6BC3F3080306EE903AF8EE666AB1
:10320C009FED0C6A67EE867A76EEA77AF7EE006A87
:10321C0077EEA67A27EE277AD0E70948704703485D
:10322C00704700BF0044025800093D000090D003D5
:10323C000024744A000000390024744C001B374BE6
:10324C00001BB700002800F0328170B50D46044613
:10325C009B4B1B6803F00F038B420BD2984A1368ED
:10326C0023F00F030B431360136803F00F038B421F
:10327C0040F01F81236813F0040F0CD02269914B8E
:10328C009B6903F070039A4205D98E498B6923F030
:10329C0070031A438A61236813F0080F0CD062691B
:1032AC00884BDB6903F070039A4205D98549CB69D9
:1032BC0023F070031A43CA61236813F0100F0CD06B
:1032CC00A269804BDB6903F4E0639A4205D97D491E
:1032DC00CB6923F4E0631A43CA61236813F0200F0F
:1032EC000CD0E269774B1B6A03F070039A4205D944
:1032FC0074490B6A23F070031A430A62236813F0B3
:10330C00020F0CD0E2686F4B9B6903F00F039A42DB
:10331C0005D96C498B6923F00F031A438A61236822
:10332C0013F0010F41D0674A936923F47063A168CD
:10333C000B4393616368022B0AD0032B27D0012B1C
:10334C002CD0604A126812F0040F06D10120ADE0B7
:10335C00126812F4003F00F0AE805A490A6922F05C
:10336C00070213430B61FDF747FD0646554B1B69DE
:10337C0003F038036268B3EBC20F16D0FDF73CFDC7
:10338C00801B41F288339842F0D903208EE04D4ADD
:10339C00126812F0007FE0D1012087E0494A1268E0
:1033AC0012F4807FD9D1012080E0236813F0020F42
:1033BC000CD0E268434B9B6903F00F039A4205D291
:1033CC0040498B6923F00F031A438A613C4B1B68FD
:1033DC0003F00F03AB420AD9394A136823F00F03E9
:1033EC002B431360136803F00F03AB4265D12368C2
:1033FC0013F0040F0CD02269324B9B6903F070035D
:10340C009A4205D22F498B6923F070031A438A61C3
:10341C00236813F0080F0CD062692A4BDB6903F0A8
:10342C0070039A4205D22749CB6923F070031A43E3
:10343C00CA61236813F0100F0CD0A269214BDB6911
:10344C0003F4E0639A4205D21E49CB6923F4E0638E
:10345C001A43CA61236813F0200F0CD0E269194B90
:10346C001B6A03F070039A4205D216490B6A23F0CB
:10347C0070031A430A62FFF7EBFD12498B69C3F321
:10348C000323114AD35C03F01F03D8408B6903F06C
:10349C000F03D35C03F01F0320FA03F30B4A1360F2
:1034AC000B4B18600B4B1868FDF744FC70BD0120EA
:1034BC0070470120FAE70120F8E70120F6E700BF8A
:1034CC0000200052004402586C73000804000024D1
:1034DC00000000240C00002408B5FFF7B9FD0B4ACE
:1034EC009369C3F303230A49CB5C03F01F0320FA4F
:1034FC0003F3926902F00F02885C00F01F0023FABC
:10350C0000F0044A1060044A136008BD00440258DD
:10351C006C730008040000240000002408B5FFF7B9
:10352C00DBFF054BDB69C3F30213044AD35C03F0E6
:10353C001F03D84008BD00BF004402586C7300083C
:10354C0008B5FFF7C9FF054BDB69C3F30223044A37
:10355C00D35C03F01F03D84008BD00BF00440258E1
:10356C006C730008404B9B6A03F00303032B79D068
:10357C0070B505460E463C4A136823F08063136011
:10358C00FDF73AFC0446384B1B6813F0006F06D06D
:10359C00FDF732FC031B022BF5D9032070BD324B17
:1035AC009A6A22F47C32296842EA01329A626A6889
:1035BC00013AC2F30802A9680139490289B20A43E7
:1035CC00E9680139090401F4FE010A43296901394A
:1035DC00090601F0FE410A439A63DA6A22F0C0023E
:1035EC0069690A43DA62DA6A22F02002A9690A439D
:1035FC00DA62DA6A22F01002DA62D96B1B4A0A40EC
:10360C00E96942EAC102DA63DA6A42F01002DA626C
:10361C00C6B91A46DB6A43F40023D362124A136814
:10362C0043F080631360FDF7E7FB04460E4B1B6809
:10363C0013F0006F14D1FDF7DFFB001B0228F5D946
:10364C000320ABE7012E05D0074AD36A43F40013DD
:10365C00D362E3E7044AD36A43F48013D362DDE711
:10366C0000209BE701207047004402580700FFFF31
:10367C00404B9B6A03F00303032B79D070B50546CE
:10368C000E463C4A136823F080531360FDF7B4FBDD
:10369C000446384B1B6813F0005F06D0FDF7ACFBFB
:1036AC00031B022BF5D9032070BD324B9A6A22F012
:1036BC007C72296842EA01529A626A68013AC2F342
:1036CC000802A9680139490289B20A43E96801393B
:1036DC00090401F4FE010A4329690139090601F0C4
:1036EC00FE410A431A64DA6A22F4406269690A43A9
:1036FC00DA62DA6A22F40072A9690A43DA62DA6AD7
:10370C0022F48072DA62596C1B4A0A40E96942EA77
:10371C00C1025A64DA6A42F48072DA62C6B91A4695
:10372C00DB6A43F48003D362124A136843F080537C
:10373C001360FDF761FB04460E4B1B6813F0005F32
:10374C0014D1FDF759FB001B0228F5D90320ABE778
:10375C00012E05D0074AD36A43F08073D362E3E7A6
:10376C00044AD36A43F40003D362DDE700209BE7ED
:10377C0001207047004402580700FFFFF8B50446CB
:10378C00036813F0006F30D0436EB3F5001F26D0E2
:10379C000ED8EBB1B3F5801F07D102210830FFF72B
:1037AC00E1FE054645B12E4621E0012635461EE0D8
:1037BC00B3F5401F09D100259F4A136D23F4401324
:1037CC00616E0B431365002611E0012635460EE0B1
:1037DC00994AD36A43F40033D3620025ECE7022103
:1037EC002830FFF745FF0546DCE700263546236801
:1037FC0013F4807F27D0A36D042B20D8DFE803F0CF
:10380C000311180808008C4AD36A43F40033D362BE
:10381C00C5B9894A136D23F00703A16D0B431365DA
:10382C0011E0002104F10800FFF79CFE0546EFE7CC
:10383C00002104F12800FFF71BFF0546E8E70126ED
:10384C00354600E02E46236813F4806F22D0D4F85E
:10385C00A430B3F5800F3FD00DD8BBB3B3F5001F28
:10386C0006D1002104F10800FFF77CFE054608E0B4
:10387C00012635460EE0B3F5000F02D0B3F5200F4C
:10388C001ED185BB6C4A936D23F46003D4F8A4104D
:10389C000B439365236813F4006F39D0D4F8A83028
:1038AC00B3F1007F5AD023D8002B51D0B3F1807FD5
:1038BC001BD1002104F10800FFF754FE05461DE062
:1038CC00B3F5C00FDDD001263546E3E75A4AD36A7B
:1038DC0043F40033D362D4E7002104F12800FFF74E
:1038EC00C7FE0546CDE72E46D4E7012635460FE048
:1038FC00B3F1806F02D0B3F1A06F23D1002D34D17E
:10390C004D4A936D23F0E063D4F8A8100B439365F4
:10391C00236813F0007F31D0E36C202B42D029D8E0
:10392C0033B1102B23D1444AD36A43F40033D3620E
:10393C00002D3ED1404AD36C23F03003E16C0B4395
:10394C00D3641BE0B3F1407FD8D001263546DFE7C6
:10395C00394AD36A43F40033D362CFE7002104F130
:10396C002800FFF785FE0546C8E72E46D0E701265E
:10397C00354603E0302BDBD001263546236813F4A3
:10398C00805F3BD0E36DB3F5005F2FD016D83BB30F
:10399C00B3F5805F0FD1002104F10800FFF7E2FDC1
:1039AC00054611E0022104F10800FFF7DBFD054696
:1039BC00BEE72E46E2E7012635461FE0B3F5405F31
:1039CC0002D0B3F5804F08D1BDB91B4A136D23F457
:1039DC00E043E16D0B43136510E0012635460DE025
:1039EC00154AD36A43F40033D362EDE7002104F1A6
:1039FC002800FFF73DFE0546E6E72E46236813F444
:103A0C00005F29D0236EB3F5003F44D019D843B1E1
:103A1C00B3F5803F12D1012104F10800FFF7A2FD9C
:103A2C000546002D3ED1044A136D23F4E023216E8C
:103A3C000B43136510E000BF0044025801263546C5
:103A4C000AE0B3F5802FECD0B3F5A02FE9D0B3F595
:103A5C00403FE6D001263546236813F4804F31D021
:103A6C00D4F8AC30B3F1005F45D020D843B1B3F1FA
:103A7C00805F19D1012104F10800FFF773FD0546A1
:103A8C00002D3FD18F4A936D23F0E043D4F8AC1056
:103A9C000B43936516E0012104F12800FFF7E8FDC4
:103AAC000546BEE72E46D7E7012635460AE0B3F1B8
:103ABC00804FE5D0B3F1A04FE2D0B3F1405FDFD03F
:103ACC0001263546236813F4004F09D0E36EB3F199
:103ADC00805F19D0B3F1005F24D0D3B101263546F5
:103AEC00236813F0807F33D0A36C032B5BD8DFE803
:103AFC0003F027225327012104F12800FFF7B8FD1A
:103B0C000546BDE72E46DDE76E4AD36A43F4003323
:103B1C00D36275B96B4A136D23F04053E16E0B43BE
:103B2C001365DDE7012104F10800FFF71BFD0546D5
:103B3C00EFE72E46D4E7634AD36A43F40033D362EB
:103B4C00A5BB604AD36C23F00303A16C0B43D36475
:103B5C00236813F4800F2BD1236813F0010F00F0AE
:103B6C00A380A36F282B00F29D80DFE803F08B9BD2
:103B7C009B9B9B9B9B9B859B9B9B9B9B9B9B949BA6
:103B8C009B9B9B9B9B9B8B9B9B9B9B9B9B9B8B9B99
:103B9C009B9B9B9B9B9B8B00022104F10800FFF7D6
:103BAC00E1FC0546CCE701263546D1E72E46CFE7AA
:103BBC00454A136843F480731360FDF71DF90746FB
:103BCC00414B1B6813F4807F05D1FDF715F9C01B21
:103BDC006428F5D90325002D4AD13A4B1B6FD4F834
:103BEC00B020534013F4407F0CD0364B1A6F22F4A4
:103BFC004072196F41F480311967196F21F48031CB
:103C0C0019671A67D4F8B030B3F5807F15D08DBB27
:103C1C00D4F8B03003F44072B2F5407F1ED0294A7C
:103C2C00136923F47C53136126490B6FD4F8B0202D
:103C3C00C2F30B0213430B678EE7FDF7DDF8074663
:103C4C00204B1B6F13F0020FE1D1FDF7D5F8C01B11
:103C5C0041F288339842F3D90325D8E71948026911
:103C6C0022F47C52194901EA131313430361DBE775
:103C7C002E4671E72E466FE7012104F10800FFF78D
:103C8C0071FC0546E5B90F4A536D23F03803A16F5B
:103C9C000B43536508E0012104F12800FFF7E8FC11
:103CAC000546EFE701263546236813F0020F1DD0B9
:103CBC00636F052B2ED8DFE803F0110B26111111C1
:103CCC002E46F1E70044025800480258CFFFFF008F
:103CDC00012104F10800FFF745FC0546EDB9A94A9E
:103CEC00536D23F00703616F0B435365236813F087
:103CFC00040F23D0D4F89030052B45D8DFE803F01F
:103D0C00150F3D151515012104F12800FFF7B0FC26
:103D1C000546E3E701263546E8E72E46E6E70121AE
:103D2C0004F10800FFF71EFC054685BB954A936D10
:103D3C0023F00703D4F890100B439365236813F01A
:103D4C00200F34D0D4F88C30B3F1005F4ED023D890
:103D5C0043B1B3F1805F1CD1002104F10800FFF7DF
:103D6C0001FC0546002D48D1864A536D23F0E043F3
:103D7C00D4F88C100B43536519E0012104F1280091
:103D8C00FFF776FC0546D0E701263546D6E72E46EA
:103D9C00D4E7012635460AE0B3F1804FE2D0B3F107
:103DAC00A04FDFD0B3F1405FDCD00126354623684D
:103DBC0013F0400F31D0D4F89830B3F5006F4DD0DC
:103DCC0020D843B1B3F5806F19D1002104F108005C
:103DDC00FFF7C8FB0546002D47D16A4A936D23F4C3
:103DEC00E053D4F898100B43936516E0022104F1CC
:103DFC002800FFF73DFC0546B4E72E46D7E7012621
:103E0C0035460AE0B3F5805FE5D0B3F5A05FE2D0AC
:103E1C00B3F5406FDFD001263546236813F0800FD1
:103E2C0033D0D4F89C30B3F5804F00F0A18021D86A
:103E3C0043B1B3F5005F1AD1002104F10800FFF77C
:103E4C0091FB0546002D40F09A804E4A936D23F469
:103E5C006043D4F89C100B43936516E0022104F1E7
:103E6C002800FFF705FC0546B5E72E46D5E70126E9
:103E7C0035460AE0B3F5004FE4D0B3F5204FE1D05E
:103E8C00B3F5C04FDED001263546236813F0080F7A
:103E9C000CD0D4F88030B3F5805F75D0394A536DAF
:103EAC0023F44053D4F880100B435365236813F06C
:103EBC00100F0CD0D4F89430B3F5807F6DD0314A0C
:103ECC00936D23F44073D4F894100B4393652368DB
:103EDC0013F4002F0BD0D4F8A030B3F5803F75D07D
:103EEC00B3F5003F68D0002B60D00126354623681F
:103EFC0013F4802F0CD0D4F88430B3F5001F7DD090
:103F0C00B3F5401F70D0B3F5801F68D0012635463D
:103F1C00236813F4803F08D0236D002B77D0B3F5C2
:103F2C00803F00F0828001263546236813F0005F45
:103F3C0040F08480236813F4003F00F08C80E36F22
:103F4C00B3F5807F00F0DF8040F28280B3F5007F14
:103F5C0003D0B3F5407F40F0D480002D40F0D980E1
:103F6C00084A536D23F44073E16F0B43536572E0C1
:103F7C00022104F12800FFF77BFB054662E72E4681
:103F8C0083E700BF00440258022104F12800FFF728
:103F9C006FFB002882D0012680E7022104F1280063
:103FAC00FFF766FB00288AD0012688E7002104F180
:103FBC000800FFF7D7FA05467DB9724A936D23F4D2
:103FCC004033D4F8A0100B43936590E7022104F121
:103FDC002800FFF74DFB0546EEE72E4687E7694ABA
:103FEC00D36A43F40033D3627DB9664A536D23F42C
:103FFC004013D4F884100B43536589E7012104F175
:10400C002800FFF735FB0546EEE72E4680E75D4AB4
:10401C00D36A43F40033D36275B95A4AD36C23F490
:10402C008033216D0B43D3647FE7022104F1080038
:10403C00FFF798FA0546EFE72E4676E7022104F1E2
:10404C002800FFF715FB00283FF474AF012671E739
:10405C00002B82D00126236813F4801F06D0494A16
:10406C00136D23F00043216F0B431365236813F486
:10407C00001F06D0434A136D23F08073A16E0B43CF
:10408C001365236813F0804F09D03E4B1A6922F454
:10409C0000421A611A69D4F8B4100A431A612368F1
:1040AC00002B06DA374AD36C23F04053616D0B4377
:1040BC00D364236813F4000F07D0324A536D23F4F2
:1040CC004003D4F888100B435365636813F0010F59
:1040DC0021D1636813F0020F26D1636813F0040F2B
:1040EC002BD1636813F0080F30D1636813F0100FF5
:1040FC0035D1636813F0200F3AD106B10126304652
:10410C00F8BD0126A7E71F4AD36A43F40033D362F4
:10411C0023E72E469FE7002104F10800FFF722FA5F
:10412C000028D6D00646D4E7012104F10800FFF799
:10413C0019FA0028D1D00646CFE7022104F1080075
:10414C00FFF710FA0028CCD00646CAE7002104F18C
:10415C002800FFF78DFA0028C7D00646C5E70121D5
:10416C0004F12800FFF784FA0028C2D00646C0E705
:10417C00022104F12800FFF77BFA0028BDD0064687
:10418C00BBE700BF0044025808B5FFF7A5F9054B83
:10419C001B6AC3F30213044AD35C03F01F03D84019
:1041AC0008BD00BF004402586C73000810B5774A74
:1041BC00916A946AC4F3053ED36AC3F3001CD36BB3
:1041CC00C3F3CC030CFB03F314F47C3F00F0D88056
:1041DC0001F0030107EE903AF8EE677A012965D0F9
:1041EC00022900F0B080E1B107EE10EAB8EE477A90
:1041FC009FED676AC6EE076A644B9B6BC3F30803BB
:10420C0007EE103AB8EE477A9FED626A67EE867A4F
:10421C0077EE277AB7EE007A77EE877A66EEA76AA2
:10422C0060E0136813F0200F23D011461268C2F31C
:10423C00C102594BD34007EE103AB8EE477A06EE5E
:10424C0090EAB8EE666AC7EE066A8B6BC3F3080396
:10425C0007EE103AB8EE477A9FED4E6A67EE867A13
:10426C0077EE277AB7EE007A77EE877A66EEA76A52
:10427C0038E007EE10EAB8EE477A9FED486AC6EED2
:10428C00076A424B9B6BC3F3080307EE103AB8EE78
:10429C00477A9FED406A67EE867A77EE277AB7EE1B
:1042AC00007A77EE877A66EEA76A1BE007EE10EAD3
:1042BC00B8EE477A9FED366AC6EE076A334B9B6BB6
:1042CC00C3F3080307EE103AB8EE477A9FED316A54
:1042DC0067EE867A77EE277AB7EE007A77EE877AF2
:1042EC0066EEA76A294A936BC3F3462307EE103A8E
:1042FC00B8EE477AB7EE006A37EE067AC6EE877AE2
:10430C00FCEEE77AC0ED007A936BC3F3064307EE3D
:10431C00103AB8EE477A37EE067AC6EE877AFCEE9C
:10432C00E77AC0ED017A936BC3F3066307EE903A1C
:10433C00F8EE677A77EE867A86EEA77ABCEEC77AC5
:10434C0080ED027A10BD07EE10EAB8EE477A9FEDC9
:10435C00146AC6EE076A0D4B9B6BC3F3080307EE9A
:10436C00103AB8EE477A9FED0B6A67EE867A77EED5
:10437C00277AB7EE007A77EE877A66EEA76AB1E70E
:10438C000023036043608360DCE700BF00440258F5
:10439C000024744A000000390090D0030024744CAF
:1043AC00001B374B10B5774A916A946AC4F3055ECB
:1043BC00D36AC3F3002C536CC3F3CC030CFB03F391
:1043CC0014F07C7F00F0D88001F0030107EE903AE6
:1043DC00F8EE677A012965D0022900F0B080E1B1CE
:1043EC0007EE10EAB8EE477A9FED676AC6EE076AE9
:1043FC00644B1B6CC3F3080307EE103AB8EE477A14
:10440C009FED626A67EE867A77EE277AB7EE007ACE
:10441C0077EE877A66EEA76A60E0136813F0200FD8
:10442C0023D011461268C2F3C102594BD34007EE98
:10443C00103AB8EE477A06EE90EAB8EE666AC7EE26
:10444C00066A0B6CC3F3080307EE103AB8EE477A12
:10445C009FED4E6A67EE867A77EE277AB7EE007A92
:10446C0077EE877A66EEA76A38E007EE10EAB8EEC8
:10447C00477A9FED486AC6EE076A424B1B6CC3F342
:10448C00080307EE103AB8EE477A9FED406A67EEE4
:10449C00867A77EE277AB7EE007A77EE877A66EE31
:1044AC00A76A1BE007EE10EAB8EE477A9FED366A72
:1044BC00C6EE076A334B1B6CC3F3080307EE103AC6
:1044CC00B8EE477A9FED316A67EE867A77EE277AF7
:1044DC00B7EE007A77EE877A66EEA76A294A136CF4
:1044EC00C3F3462307EE103AB8EE477AB7EE006AEC
:1044FC0037EE067AC6EE877AFCEEE77AC0ED007AE4
:10450C00136CC3F3064307EE103AB8EE477A37EE56
:10451C00067AC6EE877AFCEEE77AC0ED017A136C68
:10452C00C3F3066307EE903AF8EE677A77EE867A75
:10453C0086EEA77ABCEEC77A80ED027A10BD07EE44
:10454C0010EAB8EE477A9FED146AC6EE076A0D4B77
:10455C001B6CC3F3080307EE103AB8EE477A9FEDD5
:10456C000B6A67EE867A77EE277AB7EE007A77EEEB
:10457C00877A66EEA76AB1E7002303604360836025
:10458C00DCE700BF004402580024744A00000039E4
:10459C000090D0030024744C001B374B026852E887
:1045AC00003F23F4907342E800310029F6D10268F1
:1045BC0002F1080353E8001F0D4B0B40083242E890
:1045CC0000310029F3D1C36E012B06D02023C0F893
:1045DC008C300023C36643677047026852E8003F83
:1045EC0023F0100342E800310029F6D1EEE700BFBA
:1045FC00FEFFFFEF70B586B0044601688368026960
:10460C00134342691343C26913430868904A02403A
:10461C0013430B602268536823F44053E1680B4347
:10462C005360A16922688B4B9A4201D0236A1943CB
:10463C009068894B03400B4393602268D36A23F044
:10464C000F03616A0B43D3622268844B9A4229D0D0
:10465C00834B9A4200F09480824B9A4200F0AA80DD
:10466C00814B9A4200F0C080804B9A4200F0D68079
:10467C007F4B9A4200F008817E4B9A4200F02D81CC
:10468C007D4B9A4200F040817C4B9A4200F0538162
:10469C007B4B9A4200F078816E4B9A4200F09D81E0
:1046AC00802333E0774B5B6D03F03803282B65D800
:1046BC00DFE813F029006400640064006400640007
:1046CC0064006400AB016400640064006400640076
:1046DC00640064002B0064006400640064006400E7
:1046EC00640064005E0064006400640064006400A4
:1046FC006400640060006400640064006400640092
:10470C00640064006200012300E0082351498A42DE
:10471C0000F09481E069B0F5004F00F00A82202B84
:10472C0000F26282202B00F2AC82DFE813F07902F7
:10473C007F02AA02AA028202AA02AA02AA02870283
:10474C00AA02AA02AA02AA02AA02AA02AA028C021B
:10475C00AA02AA02AA02AA02AA02AA02AA02AA02ED
:10476C00AA02AA02AA02AA02AA02AA02AA029802EF
:10477C001023CBE72023C9E74023C7E78023C5E7F5
:10478C00404B5B6D03F00703052B11D8DFE813F0EA
:10479C0006003F0108000A000C000E000023B5E7DC
:1047AC000823B3E71023B1E72023AFE74023ADE79D
:1047BC008023ABE7334B5B6D03F00703052B11D85C
:1047CC00DFE813F00600270108000A000C000E00B9
:1047DC0000239BE7082399E7102397E7202395E70D
:1047EC00402393E7802391E7264B5B6D03F007038F
:1047FC00052B11D8DFE813F006000F0108000A00A2
:10480C000C000E00002381E708237FE710237DE7CF
:10481C0020237BE7402379E7802377E7194B5B6DF7
:10482C0003F00703052B11D8DFE813F00600F7009F
:10483C0008000A000C000E00002367E7082365E758
:10484C00102363E7202361E740235FE780235DE7C4
:10485C00F369FFCF000C0058FFF4FF11001001406A
:10486C000044004000480040004C00400050004014
:10487C000014014000780040007C0040001801400A
:10488C00001C014000440258694B5B6D03F0380377
:10489C00282B20D8DFE803F0151F1F1F1F1F1F1F19
:1048AC00C31F1F1F1F1F1F1F171F1F1F1F1F1F1F70
:1048BC00191F1F1F1F1F1F1F1B1F1F1F1F1F1F1F06
:1048CC001D00012322E7082320E710231EE72023E5
:1048DC001CE740231AE7802318E7554B5B6D03F068
:1048EC000703052B0ED8DFE803F0039C0507090B23
:1048FC0000230BE7082309E7102307E7202305E72C
:10490C00402303E7802301E7494B5B6D03F007036A
:10491C00052B0ED8DFE803F003870507090B0023EE
:10492C00F4E60823F2E61023F0E62023EEE640231B
:10493C00ECE68023EAE63E4B5B6D03F03803282B54
:10494C0020D8DFE803F0151F1F1F1F1F1F1F721F2A
:10495C001F1F1F1F1F1F171F1F1F1F1F1F1F191F69
:10496C001F1F1F1F1F1F1B1F1F1F1F1F1F1F1D0070
:10497C000123CBE60823C9E61023C7E62023C5E6AE
:10498C004023C3E68023C1E6294B5B6D03F038035B
:10499C00282B20D8DFE803F0151F1F1F1F1F1F1F18
:1049AC004E1F1F1F1F1F1F1F171F1F1F1F1F1F1FE4
:1049BC00191F1F1F1F1F1F1F1B1F1F1F1F1F1F1F05
:1049CC001D000123A2E60823A0E610239EE6202367
:1049DC009CE640239AE6802398E603F50E339B6D04
:1049EC0003F00703052B0ED8DFE803F003260507B9
:1049FC00090B02238AE6082388E6102386E6202387
:104A0C0084E6402382E6802380E604237EE60423AA
:104A1C007CE604237AE6042378E6042376E6042372
:104A2C0074E6042372E6042370E604236EE600BFEA
:104A3C0000440258042369E6042367E6202B27D898
:104A4C00022BC0F01081023B1E2B00F20E81DFE81E
:104A5C0013F050000C0156000C010C010C015B0012
:104A6C000C010C010C010C010C010C010C0160007F
:104A7C000C010C010C010C010C010C010C010C01C2
:104A8C000C010C010C010C010C010C010C016C0053
:104A9C00402B2CD14FF40040626A804B33F812202B
:104AAC00B0FBF2F3656805EB4501994200F2DF803B
:104ABC00B3EB053F00F2DD80002633463146FBF7B1
:104ACC001FFC090241EA106100026B08C0182A465B
:104ADC00334641F10001FBF713FCA0F54072704B1B
:104AEC009A4200F2C8802368D8603046CAE00120A0
:104AFC00C8E0FFF749FB0028CED10020C2E003A894
:104B0C00FFF754FB0498F6E76846FFF74BFC019857
:104B1C00F1E7644B1B6813F0200F08D0614B1B6846
:104B2C00C3F3C1036048D840E5E76048B4E75E488A
:104B3C00B2E7202B15D8202B00F29F80DFE803F082
:104B4C0031379D9D3A9D9D9D3F9D9D9D9D9D9D9D1C
:104B5C00449D9D9D9D9D9D9D9D9D9D9D9D9D9D9DD2
:104B6C005000402B1BD1626A4C4B33F81230B0FB17
:104B7C00F3F06268530803EB4000B0FBF2F0A0F1D5
:104B8C0010024FF6EF739A4279D883B223F00F03D9
:104B9C00C0F3420018432368D860002072E0012063
:104BAC0070E0FEF7BBFC0028DDD100206AE0FEF7C8
:104BBC00C7FCF8E703A8FFF7F9FA0498F3E768468F
:104BCC00FFF7F0FB0198EEE7364B1B6813F0200F54
:104BDC0008D0344B1B68C3F3C1033348D840E2E719
:104BEC003248C0E73048BEE7402B17D14FF40040A5
:104BFC00626A2A4B33F81230B0FBF3F0636800EBB7
:104C0C005300B0FBF3F0A0F110024FF6EF739A4291
:104C1C0042D8236880B2D860002033E0012031E014
:104C2C00FEF77CFC0028E3D100202BE0FEF788FC8B
:104C3C00F8E703A8FFF7BAFA0498F3E76846FFF71A
:104C4C00B1FB0198EEE7174B1B6813F0200F08D04F
:104C5C00144B1B68C3F3C1031348D840E2E7134855
:104C6C00C6E71148C4E701200CE001200AE001204E
:104C7C0008E0012006E0012004E0012002E0012010
:104C8C0000E001200123A4F86A30A4F86830002366
:104C9C006367A36706B070BD0120F3E78C7300084F
:104CAC00FFFC0F00004402580090D00300093D00A7
:104CBC00836A13F0080F06D00268536823F400438C
:104CCC00816B0B435360836A13F0010F06D00268AB
:104CDC00536823F40033C16A0B435360836A13F0A7
:104CEC00020F06D00268536823F48033016B0B4328
:104CFC005360836A13F0040F06D00268536823F4E0
:104D0C008023416B0B435360836A13F0100F06D062
:104D1C000268936823F48053C16B0B439360836ADE
:104D2C0013F0200F06D00268936823F40053016C33
:104D3C000B439360836A13F0400F0AD002685368E8
:104D4C0023F48013416C0B435360436CB3F5801F09
:104D5C000BD0836A13F0800F06D00268536823F4DB
:104D6C000023C16C0B43536070470268536823F4F3
:104D7C00C003816C0B435360EBE72DE9F843054608
:104D8C000E4617469946DDF820802C68E46936EA11
:104D9C0004030CBF4FF0010C4FF0000CBC453AD192
:104DAC00B8F1FF3FF1D0FCF727F8A0EB0900404524
:104DBC0034D8B8F1000F33D02B681A6812F0040FF6
:104DCC00E3D0B6F1400218BF0122802EDDD0002ABC
:104DDC00DBD0DA6912F0080F11D1DA6912F4006F26
:104DEC00D3D04FF400621A622846FFF7D7FB20237A
:104DFC00C5F89030002385F8843003200CE008249B
:104E0C001C622846FFF7CAFBC5F89040002385F8C2
:104E1C008430012000E00020BDE8F8830320FBE78C
:104E2C000320F9E730B583B004460023C0F8903076
:104E3C00FBF7E2FF05462268126812F0080F10D14A
:104E4C0023681B6813F0040F28D12023C4F8883082
:104E5C00C4F88C300020E066206784F8840003B02E
:104E6C0030BD6FF07E430093034600224FF40011D7
:104E7C002046FFF782FF0028E2D0226852E8003F6C
:104E8C0023F0800342E800310029F6D12023C4F836
:104E9C008830002384F884300320E0E76FF07E43F1
:104EAC0000932B4600224FF480012046FFF765FF4C
:104EBC000028CAD0226852E8003F23F4907342E8DD
:104ECC0000310029F6D1226802F1080353E8003FB3
:104EDC0023F00103083242E800310029F3D12023EA
:104EEC00C4F88C30002384F884300320B7E778B3FF
:104EFC0010B50446D0F888300BB32423C4F888309E
:104F0C002268136823F001031360A36AE3B92046F7
:104F1C00FFF770FB012811D02268536823F49043EB
:104F2C0053602268936823F02A0393602268136805
:104F3C0043F0010313602046FFF774FF10BD80F8A7
:104F4C008430FBF7E7FDD8E72046FFF7B1FEDEE73C
:104F5C0001207047436E2BB90123A0F86A30A0F8EA
:104F6C006830704730B403689A68C2F3426299683B
:104F7C00490F094D6B5C1B01084C615C93FBF1F311
:104F8C00A0F86A30AB5C1B01A25C93FBF2F3A0F8B7
:104F9C00683030BC704700BFAC730008A4730008C5
:104FAC0090F88430012B18D0012380F8843024230E
:104FBC00C0F8883003681A68196821F0010119607B
:104FCC0022F000520023436601680A602022C0F8D8
:104FDC00882080F88430184670470220704738B516
:104FEC0090F88430012B1DD00446012380F88430C6
:104FFC002423C0F8883003681D681A6822F0010267
:10500C001A600268936823F0604319439160FFF7BC
:10501C00A1FF23681D602023C4F88830002084F889
:10502C00840038BD0220FCE738B590F88430012BA1
:10503C001DD00446012380F884302423C0F8883026
:10504C0003681D681A6822F001021A6002689368EE
:10505C0023F0606319439160FFF77CFF23681D60A8
:10506C002023C4F88830002084F8840038BD022046
:10507C00FCE782B000230193019B01330193019B58
:10508C00B3F1706F15D80369002BF5DA0023019387
:10509C00036943F001030361019B01330193019BFD
:1050AC00B3F1706F08D8036913F0010FF4D100202D
:1050BC0000E0032002B070470320FBE784B010B57A
:1050CC00044603A880E80E009DF81130012B1FD177
:1050DC00A36B23F48033A363E2681F4B1340E3609C
:1050EC00E36823F44013E3609DF81830012B0AD0D9
:1050FC002046FFF7BEFF9DF80E30012B1CD0BDE8FB
:10510C00104004B07047E36843F48013E360EFE7AA
:10511C00E36843F04003E3602046FFF7AAFF9DF8E5
:10512C00153023B9A36B43F48033A363E3E7A36B7C
:10513C0023F48033A363DEE7E36D9BB2E365E26D9A
:10514C00064B1343E365A36843F00603A360A3680F
:10515C0043F02003A360D2E7BFFFBDFF0000EE03C6
:10516C00022A0AD00921C26822F47052C260C368B4
:10517C0043EA8123C36000207047204B0B44204A34
:10518C00934229D91F4B0B441F4A934226D91F4BDC
:10519C000B441F4A934223D91E4B0B441E4A934285
:1051AC0020D31E4B0B441E4A93421DD91D4B0B445E
:1051BC001D4A93421AD31D4B0B441D4A934217D3DD
:1051CC001C4B0B441C4A934214D31C4B0B441C4ADF
:1051DC00934211D20721C6E70F21C4E70E21C2E783
:1051EC000D21C0E70C21BEE70B21BCE70A21BAE771
:1051FC000921B8E70821B6E70621B4E7405327FF99
:10520C00FF340C00401E1BFF3F420F0000DC0BFF65
:10521C007F4F1200808CF9FE20D6130060B6E5FE9D
:10522C005FE3160000D3CEFE40771B00C05BB3FEDD
:10523C00C091210000CA91FE20753800E05459FE3F
:10524C00E09C4100836843F00103836000207047B9
:10525C00836823F0010383600020704782B0002331
:10526C000193019B01330193019BB3F1706F15D82E
:10527C000369002BF5DA00230193890141F0200129
:10528C000161019B01330193019BB3F1706F08D84D
:10529C00036913F0200FF4D1002000E0032002B0CA
:1052AC0070470320FBE782B000230193019B01337D
:1052BC000193019BB3F1706F13D80369002BF5DADE
:1052CC000023019310230361019B01330193019B84
:1052DC00B3F1706F08D8036913F0100FF4D10020EC
:1052EC0000E0032002B070470320FBE7D0F8003841
:1052FC001943C0F8001800207047000084B0F8B5BE
:10530C00044607A880E80E00002306E003F14002E3
:10531C0004EB82020021516001330E2BF6D99DF86B
:10532C00266006BBD4F8043843F00203C4F80438F2
:10533C00A36B23F40013A363236843F0400323609F
:10534C00236843F0800323600023C4F8003E9DF8DB
:10535C002130012B11D19DF81F304BB90021204673
:10536C00FFF7C4FF0DE0A36B43F40013A363EBE75B
:10537C0001212046FFF7BAFF03E003212046FFF787
:10538C00B5FF10212046FFF769FF054600B1012546
:10539C002046FFF788FF00B1012504F5006C0023BF
:1053AC00CCF81030CCF81430CCF81C300AE0CBB967
:1053BC004FF00060C2F8000900220A614FF67F32FC
:1053CC008A6001339DF81C10994210D904EB4312EA
:1053DC0002F51061D2F800090028E8DB0020C2F8C1
:1053EC000009E9E74FF09040C2F80009E4E7002318
:1053FC000AE0BBB14FF09047C2F8007B002202617B
:10540C004FF67F3282600133994210D904EB43127C
:10541C0002F53060D2F8007B002FEADB0027C2F8DF
:10542C00007BEBE74FF00067C2F8007BE6E7DCF8A7
:10543C00103023F48073CCF810300023A3616FF08C
:10544C00804363619DF81E301BB9A36943F01003C0
:10545C00A361A2690A4B1343A3619DF822301BB1CF
:10546C00A36943F00803A361012E04D02846BDE8CC
:10547C00F84004B07047A269024B1343A361F5E7EF
:10548C0000383C8004000040D0F8083813F00603C4
:10549C0005D0062B18BF022B03D102207047002029
:1054AC0070470F207047000010B591F800C04B7882
:1054BC00012B21D000F5006ED0F81C380CF00F0435
:1054CC000122A24043EA0243C0F81C3800EB4C1006
:1054DC00D0F8003B13F4004F0CD1D0F8002B8B68A4
:1054EC00C3F30A03097943EA81431343144A1A4369
:1054FC00C0F8002B002010BDD0F81C280CF00F0EAB
:10550C0003FA0EF39BB21343C0F81C3800EB4C109B
:10551C00D0F8003913F4004FECD1D0F800298B6887
:10552C00C3F30A03097943EA814343EA8C5C42EAF8
:10553C000C0C034B4CEA0303C0F80039DAE700BF4C
:10554C000080001030B40B784A78012A26D000EB8A
:10555C004313D3F8002B002A52DBD0F83C480A78CE
:10556C0002F00F024FF0010C0CFA02F224EA024294
:10557C00C0F83C28D0F81C28097801F00F010CFA6F
:10558C0001FC22EA0C42C0F81C28D3F8001B234A69
:10559C000A40C3F8002B002030BC704700EB4313CB
:1055AC00D3F80029002A1EDBD0F83C580A7802F008
:1055BC000F02012404FA02F292B225EA0202C0F8A8
:1055CC003C28D0F81C28097801F00F018C40A4B2BB
:1055DC0022EA0404C0F81C48D3F80019104A0A4007
:1055EC00C3F80029D7E7D3F8002942F00062C3F8CA
:1055FC000029D3F8002942F08042C3F80029D3E7F0
:10560C00D3F8002B42F00062C3F8002BD3F8002B28
:10561C0042F08042C3F8002B9FE700BF0078F3EF05
:10562C00007833EC10B483B0024600230193487821
:10563C0001280BD00B7802EB4313D3F8000B002896
:10564C002DDB002003B05DF8044B70470B7802EBA8
:10565C004313D3F80049002C01DB0020F2E7D3F808
:10566C00004944F00064C3F800490B7802EB431383
:10567C00D3F8004944F08044C3F80049019B01333E
:10568C000193019C42F210739C42DBD80B7802EB25
:10569C004313D3F80039002BF0DB0020D2E7D3F80A
:1056AC00000B40F00060C3F8000B0B7802EB4313C7
:1056BC00D3F8000B40F08040C3F8000B019B013382
:1056CC000193019842F21073984208D80B7802EBC0
:1056DC004313D3F8003B002BF0DB0020B2E7012092
:1056EC00B0E710B59DF8084084B903334FEA930E28
:1056FC004FF0000C08E000EB023303F5805351F837
:10570C00044B1C600CF1010CF445F4D3002010BDCB
:10571C00F0B583B00C784B78012B2DD000EB441CEA
:10572C000CF530631E69864D35401D611E69854D33
:10573C0035401D61002C40F0C7800C690CB18C68A1
:10574C000C618C680C621D69C4F312042C431C613F
:10575C001C6944F400241C61012A00F0D8800B79E8
:10576C00012B00F0DA80DCF8003B43F00443CCF86A
:10577C00003B002003B0F0BD0B6973BB00EB44137E
:10578C00D3F810696F4D3540C3F81059D3F8105940
:10579C0045F40025C3F81059D3F81069684D35400D
:1057AC00C3F81059012A4DD000EB4414D4F8003939
:1057BC0043F00443C4F800390B79012B6BD00B690F
:1057CC00002BD6D0D0F834380A7802F00F01012221
:1057DC008A401343C0F83438CBE700EB441303F58D
:1057EC0010631E69564D35401D611E69554D35407F
:1057FC001D61D4B90E698D68AE4200D90D611D6969
:10580C0045F400251D611D690E69C6F3120635436A
:10581C001D610D79012DC5D11D6925F0C0451D6196
:10582C001D6945F000551D61BCE71E690D698F6847
:10583C003D44013DB5FBF7F5434F07EAC5453543FC
:10584C001D61E0E7CB691BB100EB4412C2F81439BF
:10585C000B79012B08D000EB4410D0F8003943F041
:10586C000443C0F8003984E7D0F8083813F4807F7B
:10587C0008D100EB4412D2F8003943F00053C2F8BF
:10588C000039E8E700EB4412D2F8003943F08053BA
:10589C00C2F80039DFE7D0F8083813F4807F0CD158
:1058AC00D4F8003943F00053C4F8003900920B8A45
:1058BC000A78C968FFF715FF5BE7D4F8003943F0A5
:1058CC008053C4F80039F1E70C6954B91C698D6830
:1058DC00C5F312052C431C611C6944F400241C61A3
:1058EC003AE78D682C44013CB4FBF5F4A4B204FBFC
:1058FC0005F50D621D69144E06EAC4442C431C6167
:10590C001C690D6AC5F312052C431C6124E7CA6897
:10591C00002A3FF424AF5A6121E7D0F8083813F479
:10592C00807F06D1DCF8003B43F00053CCF8003B01
:10593C0019E7DCF8003B43F08053CCF8003B12E74E
:10594C000000F8FFFFFF07E00000F81F00B583B070
:10595C00844608464FEA920E02F00302002305E04B
:10596C000CF58051096840F8041B01337345F7D3DB
:10597C009AB10CF5805CDCF8003001934FF0000C10
:10598C005FFA8CF3D900019BCB4000F8013B0CF182
:10599C00010C013A92B2002AF2D103B05DF804FB7B
:1059AC000B784A78012A14D000EB4310D0F8002B66
:1059BC00002A06DB2BB1D0F8003B23F08043C0F863
:1059CC00003BD0F8003B43F40013C0F8003B002030
:1059DC00704700EB4310D0F80029002A06DB2BB1EE
:1059EC00D0F8003923F08043C0F80039D0F80039E2
:1059FC0043F40013C0F80039E9E70B784A78012A20
:105A0C000ED000EB4310D0F8003B23F40013C0F889
:105A1C00003B0B79023BDBB2012B15D90020704700
:105A2C0000EB4310D0F8003923F40013C0F8003910
:105A3C000B79023BDBB2012BF0D8D0F8003943F0E4
:105A4C008053C0F80039E9E7D0F8003B43F08053AD
:105A5C00C0F8003BE2E7D0F8003823F4FE63C0F84E
:105A6C000038D0F80038090101F4FE611943C0F880
:105A7C00001800207047D0F8003E23F00303C0F854
:105A8C00003ED0F8043823F00203C0F8043800209C
:105A9C007047D0F8003E23F00303C0F8003ED0F866
:105AAC00043843F00203C0F8043800207047426900
:105ABC00806910407047D0F8183800F50060C06954
:105ACC001840000C7047D0F8183800F50060C06919
