:020000040800F2
:10000000002800208908000851050008550500084F
:10001000590500085D0500086105000800000000A2
:10002000000000000000000000000000650500085E
:1000300069050008000000006D0500087105000852
:10004000D1080008D1080008D1080008D10800082C
:10005000D1080008D1080008D1080008D10800081C
:10006000D1080008D1080008D1080008D10800080C
:10007000D1080008D1080008D1080008D1080008FC
:10008000D1080008D1080008D1080008D1080008EC
:100090007505000881050008D1080008D10800088E
:1000A000D10800088D050008D1080008D108000813
:1000B00099050008A505000800000000D108000807
:1000C000D10800080000000000000000D10800086E
:1000D00000000000D1080008D1080008000000005E
:1000E000D1080008D1080008D1080008000000006D
:1000F0000000000000000000000000000000000000
:0C01000000000000000000005FF808F1A3
:10010C0010B5054C237833B9044B13B10448AFF345
:10011C0000800123237010BD440400200000000067
:10012C00B426000808B5034B1BB103490348AFF3D1
:10013C00008008BD0000000048040020B426000820
:10014C00002308214FF48032094810B5094CC0E94E
:10015C0005338383C0E90113C0E90332046000F066
:10016C0003FE00B910BDBDE8104000F0C7B900BFD8
:10017C00A80400200064004030B50024214B026824
:10018C0087B09A42CDE90244CDE9044401D007B0CE
:10019C0030BD4FF4006503F5D633DA6902A942F09D
:1001AC000072DA61DA69184802F000720092009A63
:1001BC009A6942F004029A619B69029503F0040368
:1001CC0001930225019B01F0C7F903234FF48052E0
:1001DC0002A90D480593CDE9022501F0BDF922468F
:1001EC002946142001F040F9142001F07BF9224635
:1001FC002946152001F038F9152001F073F907B0E4
:10020C0030BD00BF006400400008014030B5002341
:10021C0001224FF220450E248BB069460948CDE9E6
:10022C000622CDE90233CDE90433009509940193FC
:10023C00089200F01BFE08B90BB030BD00F05EF95F
:10024C000BB030BDA804002038B5034600240825A7
:10025C00C3E904455960DC601C7611780E481977A7
:10026C005178597791789977D178D977117983F832
:10027C002010517983F82110917983F82210D179CB
:10028C0003F11C0283F82310191D00F09FFEB0FA35
:10029C0080F0400938BD00BFA804002038B50268C2
:1002AC00144B9A4200D038BD0446134D022100F085
:1002BC0087FF2A4605F11C030021204600F0DEFED4
:1002CC0040F2A1732A689A4209D00221204600F01C
:1002DC0065FF0028E7D0BDE8384000F00FB94FF4B7
:1002EC000071064801F042FA05F11C0000F02CFBED
:1002FC00EBE700BF006400406004002000080140F0
:10030C002DE9F0430024012587B0CDE90244CDE965
:10031C000444244B244E9A69DFF8909042F0040276
:10032C009A619A69304602F004020092009A9A6926
:10033C00F82142F008029A619B69224603F00803F7
:10034C000193019B01F00EFA2246484640F6074104
:10035C0001F008FA2A4630464FF4407101F002FAD7
:10036C00134B304602A94FF0020803270393029562
:10037C00049501F0F1F84FF47E73304602A9029314
:10038C00CDE90358059701F0E7F840F607434846D6
:10039C0002A9CDE904870395029301F0DDF807B0BB
:1003AC00BDE8F0830010024000080140000C014041
:1003BC000000211030B591B02022002107A802F0D6
:1003CC00B1F801200023022410214FF460120A908E
:1003DC0006A8CDE90233CDE90433019306940B91C1
:1003EC000D940F9201F0CCF908B172B6FEE70346FA
:1003FC000F254FF48062214601A8029403930593C4
:10040C000195049201F0D4FB08B172B6FEE711B06D
:10041C0030BD00BF334C08B500F070FCFFF7CAFFCD
:10042C00FFF76EFFFFF78CFE00F0AEF900F0F4F86A
:10043C0000F0BAF8204601F0D7FC0821204601F064
:10044C0055FD2368E2682848DA6301F0CDFC2748A3
:10045C0001F0CAFCFFF7DAFE0221254800F09EFEEF
:10046C0008B172B6FEE7224800F07EFD08B172B604
:10047C00FEE701224FF400611E4801F073F90122DE
:10048C004FF480611B4801F06DF9012204211948D9
:10049C0001F068F901220221164801F063F90122EA
:1004AC001448114601F05EF901228021124801F036
:1004BC0059F901224021104801F054F90122202160
:1004CC000D4801F04FF9012210210B4801F04AF9B7
:1004DC0001220821084801F045F94FF47A7000F028
:1004EC0031FCFAE7D004002060050020180500203C
:1004FC00A8040020000C01400008014072B6FEE781
:10050C000E4B82B09A690E4942F001029A619A69C7
:10051C0002F001020092009ADA6942F08052DA612C
:10052C00DB6903F080530193019B4B6823F0E0637C
:10053C0043F000734B6002B0704700BF00100240E4
:10054C0000000140FEE700BFFEE700BFFEE700BF72
:10055C00FEE700BFFEE700BF704700BF704700BF5B
:10056C00704700BF00F0DCBB014800F055BE00BF77
:10057C00A8040020014800F04FBE00BFA8040020D2
:10058C00014801F06DBD00BFD0040020014801F00E
:10059C0067BD00BF18050020014801F061BD00BF18
:1005AC0060050020704700BF10B500234FF0804459
:1005BC0040F2E7314FF4FA42164886B0C0E9011315
:1005CC00C0E90323CDE903330460029300938361F4
:1005DC000593019301F036FE88B94FF480530D4812
:1005EC0002A9029301F084FC80B9002369460948F2
:1005FC00CDE9003301F016FF20B906B010BDFFF7AE
:10060C007DFFEAE7FFF77AFF06B010BDFFF776FF34
:10061C00EBE700BF1805002000234FF4FA4200B5A9
:10062C001748184987B0C0E90133CDE9033301609D
:10063C00C26002930093036183610593019301F0FF
:10064C0001FE90B94FF480530D4802A9029301F0BA
:10065C004FFC90B9002369460948CDE9003301F0FD
:10066C00E1FE28B907B05DF804FBFFF747FFE9E7A7
:10067C00FFF744FF07B05DF804FBFFF73FFFE9E726
:10068C00600500200004004000B5274A036885B0CF
:10069C00934208D0B3F1804F1AD0244A93422DD004
:1006AC0005B05DF804FB0022214B1920996941F437
:1006BC00006199619B69114603F400630193019BEE
:1006CC0000F0D2FE192005B05DF804EB00F00ABF73
:1006DC0003F50433D9691C2041F00101D961DB69B0
:1006EC00002203F0010302930321029B00F0BCFEE5
:1006FC001C2005B05DF804EB00F0F4BE0C4B1D2083
:10070C00D969002241F00201D961DB69012103F0B2
:10071C0002030393039B00F0A7FE1D2005B05DF8B8
:10072C0004EB00F0DFBE00BF002C014000040040D1
:10073C0000100240002330B5114A016887B0914285
:10074C00CDE90233CDE9043301D007B030BD02242A
:10075C004FF4806503F1804303F504339A6909482B
:10076C0042F004029A619B6902A903F0040301930D
:10077C00CDE90254019B059400F0EEFE07B030BDAC
:10078C00002C01400008014030B5002497B0202215
:10079C0021460EA8CDE90444CDE90844CDE90A442C
:1007AC00CDE90C440394019407940694029401F04F
:1007BC00B9FE4FF448632F48C3602F4BC0E9014486
:1007CC00C0E904448461036001F03CFD00283AD187
:1007DC004FF48053274803A9039301F089FB0028A9
:1007EC0044D1244801F05CFD00283CD10023214871
:1007FC0001A9CDE9013301F015FE88BB002360256A
:10080C004FF47A7408221B4807A9CDE90754CDE9A7
:10081C000A33CDE90C33099301F09EFDE8B90023AE
:10082C004FF4005213480EA9CDE90E33CDE9103325
:10083C00CDE91232159301F023FE38B90D48FFF7BC
:10084C0079FF17B030BDFFF759FEC1E7FFF756FE31
:10085C000848FFF76FFF17B030BDFFF74FFEDEE71C
:10086C00FFF74CFECAE7FFF749FEBFE7FFF746FE6E
:10087C00B7E700BFD0040020002C0140FFF792FE28
:10088C000B480C490C4A002302E0D458C4500433E2
:10089C00C4188C42F9D3094A094C002301E01360B7
:1008AC000432A242FBD301F019FEFFF7B3FD7047EF
:1008BC00000000204404002000270008440400200D
:1008CC00C0050020FEE7000083780A46092B30D8CB
:1008DC00DFE803F0090E13171B1F23272B05082134
:1008EC00164800F03FBF4FF40061154800F03ABFC6
:1008FC004FF48061124800F035BF0421104800F01D
:10090C0031BF02210E4800F02DBF01210C4800F030
:10091C0029BF8021094800F025BF4021074800F07D
:10092C0021BF2021054800F01DBF1021034800F015
:10093C0019BF0122034B1A70704700BF0008014019
:10094C00000C0140A905002008B50278A52A07D0A3
:10095C00A62A71D0A42A39D001223F4B1A7008BDA7
:10096C0000224FF400613D4800F0FCFE00224FF4E1
:10097C0080613A4800F0F6FE00220421374800F06E
:10098C00F1FE00220221354800F0ECFE002201218C
:10099C00324800F0E7FE00228021314800F0E2FEF0
:1009AC00002240212E4800F0DDFE002220212C48A0
:1009BC0000F0D8FE00221021294800F0D3FEBDE83B
:1009CC00084000220821264800F0CCBE01224FF43A
:1009DC000061224800F0C6FE01224FF480611F48DE
:1009EC0000F0C0FE012204211C4800F0BBFE0122D5
:1009FC0002211A4800F0B6FE01221848114600F0F8
:100A0C00B1FE01228021164800F0ACFE01224021EB
:100A1C00134800F0A7FE01222021114800F0A2FE8D
:100A2C00012210210E4800F09DFEBDE80840012275
:100A3C0008210B4800F096BE4378BF2B06D0FB2B49
:100A4C008AD1BDE808400121FFF73EBF0021BDE877
:100A5C000840FFF739BF00BFA9050020000C01407A
:100A6C000008014030B5844A036883B0934221D01A
:100A7C00824A934205D0B3F1804F00F0828003B0DC
:100A8C0030BD7F4C238801339BB2238023889BB2DB
:100A9C00B3F5C87F65D241F293107A490B889BB2AB
:100AAC005A1C92B283420A80E9D90023764A0B8001
:100ABC001370E4E7754B1B78002BE0D000224FF449
:100ACC000061734800F04EFE00224FF480617048C4
:100ADC0000F048FE002204216D4800F043FE002285
:100AEC0002216B4800F03EFE00220121684800F014
:100AFC0039FE00228021674800F034FE002240219C
:100B0C00644800F02FFE00222021624800F02AFEEB
:100B1C00002210215F4800F025FE002208215D48CC
:100B2C0000F020FE152000F0EBFC02215A4800F0EA
:100B3C0047FB5A490B889BB25A1C92B2B3F5966F7D
:100B4C000A809CD30023564A0B801068002840F082
:100B5C0091805448C368002400681360C3630C8000
:100B6C008DE7494D2B78012B95D84FF4807149486E
:100B7C0000F0FCFD002323802B780133DBB22B70BB
:100B8C007DE74FF40061424800F0E6FD04464FF467
:100B9C0080613F48A4F1010400F0DEFDB4FA84F456
:100BAC0001284FEA54144FF00401394808BF44F0AF
:100BBC00020400F0D1FD02210128354808BF44F0A1
:100BCC00040400F0C9FD01210128314808BF44F09C
:100BDC00080400F0C1FD802101282E4808BF44F014
:100BEC00100400F0B9FD402101282A4808BF44F048
:100BFC00200400F0B1FD20210128264808BF44F054
:100C0C00400400F0A9FD10210128224808BF44F03F
:100C1C00800400F0A1FD082101281E4808BF44F4FF
:100C2C00807400F099FDFB23184A012808BF44F496
:100C3C0000741D491278200A8DF800408DF80100CF
:100C4C00C1F800D08DF802308DF803308DF80430E7
:100C5C008DF805308DF806308DF8073032B96A46BC
:100C6C0040F2A1711148FFF7EFFA08E7104B1A4652
:100C7C000B60F5E70B486EE7002C014000040040C8
:100C8C000C000020B6050020A8050020A9050020B6
:100C9C00000C014000080140A8040020B40500200D
:100CAC00AC050020D0040020B005002084040020F6
:100CBC000400002038B54FF47A730D4A05461178BC
:100CCC000C4AB3FBF1F31268B2FBF3F000F02CFC0E
:100CDC0008B90F2D01D9012038BD0446024629461A
:100CEC004FF0FF3000F0C0FB034B20461D6038BDB9
:100CFC000E0000200000002010000020074A08B55C
:100D0C001368032043F01003136000F09BFB0F20CB
:100D1C00FFF7D0FFFFF7F4FB002008BD00200240D6
:100D2C00034A044B11681B780B441360704700BFD7
:100D3C00B80500200E000020014B1868704700BF5A
:100D4C00B805002038B50446FFF7F6FF631C0546CE
:100D5C0002D0044B1B781C44FFF7EEFF401BA04253
:100D6C00FAD338BD0E00002000287DD038B590F89D
:100D7C0020300446002B74D02268136843F0010322
:100D8C001360FFF7D9FF054604E0FFF7D5FF401BC2
:100D9C000A285DD823685A68D107F6D51A6822F05C
:100DAC0002021A60FFF7C8FF054604E0FFF7C4FF14
:100DBC00401B0A284CD823685A689207F6D4227E26
:100DCC000025012A1A684FF0010C0CBF42F080027A
:100DDC0022F080021A60627E2846012A1A680CBF33
:100DEC0042F0400222F040021A60A27E012A1A68E8
:100DFC000CBF42F0200222F020021A60E27E012A8F
:100E0C001A680CBF22F0100242F010021A60227F06
:100E1C00012A1A680CBF42F0080222F008021A607C
:100E2C00627F012A1A680CBF42F0040222F004020D
:100E3C001A60D4E902210A4321690A4361690A4311
:100E4C00616801390A43DA61656284F820C038BDF3
:100E5C000522636A012043F40033636284F8202086
:100E6C0038BDFFF789F987E70120704790F82020FB
:100E7C000346013A012A05D95A6A012042F480221C
:100E8C005A6270474FF0010C036830B4D3F800423B
:100E9C00486944EA0C04C3F80042D3F81C4200F041
:100EAC001F020CFA02F2CD6924EA0204C3F81C42B8
:100EBC00D443002D3FD1D3F80C52D1F80CC02540AF
:100ECC00C3F80C528D8803EBC00045EA0C45C0F802
:100EDC004052D1F808C00D8845EA0C45C0F8445280
:100EEC00886910BBD3F804022040C3F804020869D7
:100EFC00A8B9D3F814020440C3F81442096A0129B2
:100F0C0004D1D3F81C120A43C3F81C22D3F80022D4
:100F1C00002030BC22F00102C3F800227047D3F845
:100F2C0014021043C3F81402E8E7D3F80402104388
:100F3C00C3F80402DBE7012DD2D1D3F80C52D1F85F
:100F4C0000C01543C3F80C528D8803EBC00045EA72
:100F5C000C45C0F84052D1F808C08D8945EA0C45C3
:100F6C00C0F84452BCE700BF70B590F8203004467E
:100F7C00012B06D00126436A43F40023436230461A
:100F8C0070BDDEB20223026880F82030136823F0B3
:100F9C0001031360FFF7D0FE054604E0FFF7CCFE1B
:100FAC00431B0A2B08D823685B6813F00103F5D1A7
:100FBC001E466362304670BD0522636A304643F4B8
:100FCC000033636284F8202070BD00BF844630B4C7
:100FDC0090F82000DCF8005001380128AC683AD8B1
:100FEC0014F0E05F08D130BCDCF82430012043F46D
:100FFC000013CCF8243070470120C4F30164A040E6
:10100C0018608B6883B3C8680343486843EAC0031D
:10101C0004F1180000012B500B6905EB041CCCF8F3
:10102C008431097D2301012905D1DCF8841141F4B7
:10103C008071CCF8841151682B44C3F88C11126860
:10104C00002030BCC3F88821DCF8803143F0010368
:10105C00CCF880317047DCF82430012030BC43F4EC
:10106C008023CCF824307047CB68086843EA4050A2
:10107C0004F118031B01E850CEE700BF844690F83A
:10108C0020000138012875D8F0B5DCF8000051B902
:10109C00C468A7070AD1DCF82430012043F40013FC
:1010AC00CCF82430F0BD0469A607F4D000EB011E87
:1010BC00DEF8B0510C0105F004059560002D61D0EF
:1010CC00DEF8B051ED085560DEF8B051204405F063
:1010DC000205D560DEF8B4512D074CBF0825DEF8AB
:1010EC00B451DEF8B46158BF05F00F051561DEF898
:1010FC00B451D0F8B871C6F307262D0C9661556122
:10110C001F70DCF800202244D2F8B821120A5A7061
:10111C00DCF800202244D2F8B821120C9A70DCF8CA
:10112C0000202244D2F8B821120EDA70DCF800202C
:10113C002244D2F8BC211A71DCF800202244D2F8E7
:10114C00BC21120A5A71DCF800202244D2F8BC21CE
:10115C00120C9A71DCF800202244D2F8BC21120E39
:10116C00DA71DCF8002091B9D368084643F020030B
:10117C00D360F0BDDCF82430012043F48023CCF89C
:10118C0024307047DEF8B0516D0D15609CE7136983
:10119C00002043F020031361F0BD00BF90F8202025
:1011AC000346013A012A05D95A6A012042F48022E9
:1011BC005A627047026800205369194351617047A5
:1011CC0090F820200346013A012A05D95A6A0120D9
:1011DC0042F480225A62704702680020536923EA65
:1011EC0001015161704700BF704700BF704700BFDD
:1011FC00704700BF704700BF704700BF704700BF0B
:10120C00704700BF704700BF704700BF704700BFFA
:10121C00704700BF704700BF2DE9F84F03680546C3
:10122C005C69D3F8048014F001069F68D3F80CB005
:10123C00D3F810A0D3F8189020D017F001060DD0D9
:10124C0001229A60BB0700F1C4807E0700F1E380A5
:10125C0017F0080600F0E8804FF48056F8050BD51F
:10126C004FF480722B68B9059A6000F1AE807A0554
:10127C0040F1CC8046F40056F80365D4270702D51C
:10128C001BF0100F6BD1600703D51BF0080F40F05B
:10129C008D80A10704D52B68DB689A0740F082800B
:1012AC00630602D51AF0100F48D1A70602D51AF022
:1012BC00080F62D1E00603D52B681B6999077CD116
:1012CC00A20302D518F0100F5ED1E30302D518F07B
:1012DC00080F60D1270405D518F0040F06D12B6830
:1012EC0004225A60002E40D1BDE8F88FE00504D5E9
:1012FC0019F0010F18BF46F00106A10504D519F02D
:10130C00020F18BF46F00206620504D519F0040F4F
:10131C0018BF46F004062305E1D519F07009DED09C
:10132C00B9F1400F00F08B8057D8B9F1200F78D06D
:10133C00B9F1300F5FD146F0200656E010222B6831
:10134C0046F480661A61B0E74FF480322B68B9031B
:10135C009A6036D47A0354D546F400468EE71022B0
:10136C002B6846F40076DA608DE76B6A28461E43DC
:10137C006E62FFF74FFFBDE8F88F08222B682846F6
:10138C001A61FFF741FF95E710222B6828465A6037
:10139C00FFF73CFF99E708222B6828465A60FFF7B5
:1013AC0037FF97E72846FEF779FF79E708222B6885
:1013BC002846DA60FFF724FF6BE72846FFF722FF89
:1013CC007EE72846FFF714FF58E72846FFF70EFF85
:1013DC0052E7FFF709FF002640E7B9F1500F1DD087
:1013EC00B9F1600F08BF46F480762B689A6922F039
:1013FC0070029A6174E7B9F1100FF6D146F0080645
:10140C00F3E73B0317D546F4803637E73B050ED59B
:10141C0046F4804630E74FF400661FE746F080063E
:10142C00E3E746F01006E0E7FFF7E4FE16E7284690
:10143C00FFF7E2FE20E72846FFF7E0FE1EE746F046
:10144C004006D2E74FF6FF0C06490302CA6803F4C4
:10145C00E06302EA0C02134343F0BF6343F400332E
:10146C00CB60704700ED00E01C4B00B5DB68C3F3AC
:10147C000223C3F1070EBEF1040F03F1040C28BFC5
:10148C004FF0040EBCF1060F1BD94FF0FF3C033B91
:10149C000CFA03FC22EA0C024FF0FF3C0CFA0EFC97
:1014AC0021EA0C019940002841EA02010CDB0901F8
:1014BC0000F16040C9B200F5614080F800135DF89E
:1014CC0004FB00221346E7E7054B00F00F0009016F
:1014DC00C9B2034419765DF804FB00BF00ED00E0CF
:1014EC00FCEC00E0002807DB012300F01F01034A9D
:1014FC0040098B4042F82030704700BF00E100E00B
:10150C0000280DDB01220749430900F01F0020339E
:10151C0002FA00F041F82300BFF34F8FBFF36F8F37
:10152C00704700BF00E100E00138B0F1807F0FD2BE
:10153C004FF0E0234FF0F00C0022072110B4054CC3
:10154C00586184F823C010469A6110BC1961704729
:10155C000120704700ED00E02DE9F04F0E6883B0DC
:10156C00002E00F0B1800022744F92461346744D49
:10157C00DFF8D08106E0013336FA03F402F10402FD
:10158C0000F0A28001249C4034EA060E04EA060C0A
:10159C00F1D14E68122E00F29A80122E1AD8DFE882
:1015AC0006F0A3B9B5C3191919191919191919196B
:1015BC00191919B1AD00DFF890E1764500F094806F
:1015CC000EF5702E764500F08F80AEF5801E7645B8
:1015DC0000F08A80BCF1FF0F9CBF864693464FF00B
:1015EC000F0684BF00F1040EA2F1200BDEF80040C0
:1015FC000AFA0BF906FA0BFB24EA0B0444EA090479
:10160C00CEF800404C6814F0805F75D0D7F818E025
:10161C0003F003094EF0010EC7F818E0D7F818E0F4
:10162C004FEA89090EF0010ECDF804E0DDF804E074
:10163C0023F0030E0EF1804E0EF5803EDEF808B05E
:10164C0006FA09F62BEA0606DFF800B158450FD06A
:10165C000BF5806B584560D0DFF8F4B058450CBFE3
:10166C004FF0020B4FF0030B0BFA09F946EA09068F
:10167C00CEF80860AE6814F4801F14BF46EA0C065E
:10168C0026EA0C06AE60EE6814F4001F14BF46EA9E
:10169C000C0626EA0C06EE606E6814F4003F14BFCC
:1016AC0046EA0C0626EA0C066E6014F4803F2C68A1
:1016BC001FD044EA0C042C600E68013336FA03F494
:1016CC0002F104027FF45EAF03B0BDE8F08F464533
:1016DC000AD07FF670AFDFF87CE0764504D00EF5CB
:1016EC00803E76457FF476AF8E6806BB4FF0040AD9
:1016FC0070E724EA0C042C600E683CE7CC6804F11B
:10170C000C0A67E7CC6804F1040A63E7CC6804F1BF
:10171C00080A5FE7D1F80CA05CE74FF0010B0BFA5D
:10172C0009F946EA0906A3E74FF0000A52E7012E31
:10173C004FF0080A0CBF046144614BE700100240F3
:10174C0000040140000022100000121000080140AB
:10175C0000100140000031108368194214BF0120B1
:10176C000020704702B9090401617047C36801EA9F
:10177C00030221EA030141EA02410161704700BF03
:10178C00002800F0B6812DE9F04103680446DD071E
:10179C0082B035D59A494A6802F00C02042A00F04E
:1017AC00EF804A6802F00C02082A00F0E5806368BA
:1017BC00B3F5803F10D0002B00F00C81B3F5A02FB7
:1017CC0000F082818E4B1A6822F480321A601A68FB
:1017DC0022F480221A6004E0894A136843F48033AF
:1017EC001360FFF7A9FA864E054605E0FFF7A4FA49
:1017FC00401B642800F2EA8033689A03F6D523680C
:10180C009F0728D57E4A516811F00C0F00F08D808F
:10181C00516801F00C01082900F083802369002B2A
:10182C0000F018810122774B754E1A60FFF784FA8D
:10183C00054605E0FFF780FA401B022800F2C6803F
:10184C0033689807F6D53368626923F0F80343EAE6
:10185C00C203336023681A071FD45D0742D5684B57
:10186C00DA69D0007DD50025674E3368D90540F183
:10187C009D80E368012B00F0FE80002B00F0CA80F5
:10188C00052B5F4B1A6A00F02C8122F001021A62C0
:10189C001A6A22F004021A62F2E0A369002B4FD0FC
:1018AC000122584B564EC3F88024FFF745FA0546E3
:1018BC0005E0FFF741FA401B022800F28780736AAB
:1018CC009B07F6D5514B524A1B68A2FB03235B0ABC
:1018DC00019300BF019B5A1E0192002BF9D1236882
:1018EC005D07BCD4E069C0B1454D6B6803F00C03D7
:1018FC00082B00F0D8800022424B02281A6600F018
:10190C00FA80FFF719FA044604E0FFF715FA001BFA
:10191C0002285BD82B689B01F7D4002002B0BDE8ED
:10192C00F0815268D6033FF579AF354A12689507B6
:10193C0030D52269012A2DD0012002B0BDE8F081FA
:10194C00304A2F4EC2F88034FFF7F6F9054604E012
:10195C00FFF7F2F9401B022838D8736A9F07F7D4B7
:10196C00BDE7DA69012542F08052DA61DB6903F0E8
:10197C0080530093009B77E74A68D0037FF517AF3D
:10198C001F4A126891037FF53BAF6268002A7FF40F
:10199C0037AFD1E71A4960690A6822F0F80242EAC7
:1019AC00C0020A601A077FF558AF76E7336843F434
:1019BC0080733360FFF7C0F907463368DA053FF5EB
:1019CC0058AFFFF7B9F9C01B6428F6D9032002B051
:1019DC00BDE8F0810A4D2B6823F480332B602B6813
:1019EC0023F480232B60FFF7A7F9064604E0FFF7EA
:1019FC00A3F9801B6428E9D82B689B03F7D4FEE677
:101A0C000010024000004242007000400000002024
:101A1C00D34D6210504E41F28838336A23F00103E3
:101A2C003362336A23F004033362FFF785F9074608
:101A3C0004E0FFF781F9C01B4045C7D8336A98070B
:101A4C00F7D4002D3FF44EAF434AD36923F08053B3
:101A5C00D36147E7414A404E1360FFF76DF90546E5
:101A6C0004E0FFF769F9401B0228AFD833689907E7
:101A7C00F7D42368EFE6384A136A43F00103136284
:101A8C00FFF75AF941F288380646334F04E0FFF766
:101A9C0053F9801B404599D83B6A9B07F7D5002D1D
:101AAC003FF420AFD0E701283FF438AF6B68226ACF
:101ABC0003F4803191427FF43FAF606A03F47013FA
:101ACC00181A18BF012029E703F18043A3F53C3312
:101ADC001A6842F480221A601A6842F480321A6042
:101AEC007FE642F004021A621A6A42F001021A629C
:101AFC00C6E701207047FFF71FF9064605E0FFF720
:101B0C001BF9801B02283FF661AF2B689901F6D4B4
:101B1C00236AB3F5803F05D16A68A16822F40032CC
:101B2C000A436A6001200C4D616A6A680B4322F417
:101B3C0074120A4913436B600866FFF7FDF80446FC
:101B4C0005E0FFF7F9F8001B02283FF63FAF2B68C2
:101B5C009A01F6D5E1E600BF0010024000004242B7
:101B6C000E4A536803F00C01082901D00C48704749
:101B7C000C48C3F38341DB03405C0AD50849536826
:101B8C0001FB00F0084AC3F34043D35CB0FBF3F015
:101B9C007047064B03FB00F0704700BF001002407B
:101BAC0000127A00DC260008EC26000800093D0033
:101BBC00002800F08C80494A2DE9F0411368044656
:101BCC0003F007038B420D460CD2136823F0070376
:101BDC000B431360136803F007038B4202D0012000
:101BEC00BDE8F0812368980714D5590704D53C4902
:101BFC004A6842F4E0624A601A0704D538494A68D8
:101C0C0042F460524A603649A0684A6822F0F002F9
:101C1C0002434A60DF0720D56268314B012A1B68FA
:101C2C0057D0022A50D09907D9D52D4E41F2883879
:101C3C00736823F0030313437360FFF77DF80746C3
:101C4C0004E0FFF779F8C01B404545D8736862681B
:101C5C0003F00C03B3EB820FF3D1204A136803F0AB
:101C6C000703AB4209D9136823F007032B43136016
:101C7C00136803F00703AB42B1D123685A0706D5AA
:101C8C001749E0684A6822F4E06202434A601B0785
:101C9C0007D5134A2169536823F4605343EAC103FF
:101CAC005360FFF75DFF03460D4A0E4952680E481C
:101CBC00C2F30312895C0D4ACB4000681360FEF737
:101CCC00F9FF0020BDE8F0819801AED487E7012030
:101CDC0070479E03A9D482E7032081E700200240CD
:101CEC0000100240CC26000810000020000000204C
:101CFC00036A026A70B422F00102026244688269CB
:101D0C000E680F4D22F0730232438E6823F00203EB
:101D1C00A84243EA060306D049684460826170BC5D
:101D2C00416303627047CD6823F008032B4324F40E
:101D3C004074D1E90556354323F004032C43EBE7FB
:101D4C00002C0140036A026A70B422F480720262B1
:101D5C004468C2690E68104D22F0730232438E68DB
:101D6C0023F40073A84243EA062306D04968446072
:101D7C00C26170BCC16303627047CD6823F4006319
:101D8C0043EA052324F44054D1E90556354323F4A2
:101D9C00806344EA0514E9E7002C0140036A026AF7
:101DAC0030B422F4805202624468C269D1F800C097
:101DBC000C4D22F4E64242EA0C22D1F808C023F47E
:101DCC000053A84243EA0C3306D049684460C26110
:101DDC0030BC0164036270474D6924F4804444EACA
:101DEC008514F2E7002C014090F83D30012B16D100
:101DFC000222036880F83D20DA680D4942F00102A6
:101E0C008B42DA600DD0B3F1804F0AD0094A93426D
:101E1C0007D01A68002042F001021A6070470120B6
:101E2C0070479A6802F00702062AF2D10020704728
:101E3C00002C01400004004021BB90F83E30012BE7
:101E4C0028D1022380F83E300122036801F01F01E3
:101E5C00186A02FA01F120EA010010B418621A6A39
:101E6C001F4C1143A34219621ED0B3F1804F1FD0F7
:101E7C001C4A93421CD01A68002042F0010210BC8C
:101E8C001A607047042923D0082919D090F84130E2
:101E9C00012B01D00120704704291DD0082913D033
:101EAC00022380F84130CFE75A6C42F400425A6466
:101EBC009A6802F00702062ADDD1002010BC704798
:101ECC0090F84030012BE5D1022380F84030BBE77D
:101EDC0090F83F30012BDDD1022380F83F30B3E77F
:101EEC00002C014000040040704700BFFFF7A4BF66
:101EFC0090F83C30012B75D002460223012030B4FF
:101F0C00146882F83C0082F83D30A36823F47F43C8
:101F1C0023F07703A3600B68602B65D024D8402B8B
:101F2C007CD04BD9502B17D14868CD68216A236AD5
:101F3C0021F00A010143002023F001032362A3696D
:101F4C0023F0F00343EA0513A3612162A36823F095
:101F5C00700343F05703A3600121002382F83D1066
:101F6C0082F83C3030BC7047B3F5805F38D0B3F5A5
:101F7C00005F10D1D1E90153A0682B43CD6820F448
:101F8C007F4143EA05230B43A360A368002043F47D
:101F9C008043A360E0E7702BDED1D1E90153A06848
:101FAC002B43CD6820F47F4143EA05230B43A36008
:101FBC00A368002043F07703A360CDE7202B02D069
:101FCC000AD9302BC8D1A168002021F070010B4335
:101FDC0043F00703A360BFE733F01001BCD1F2E775
:101FEC000020B9E702207047236A4868CD68216A4F
:101FFC0023F0A00321F010012162A16943EA001330
:10200C0021F4704141EA0531A1612362A3680020EB
:10201C0023F0700343F06703A3609DE74868CD6825
:10202C00216A236A21F00A0123F001032362A369C8
:10203C00014323F0F00343EA0513A3612162A36873
:10204C00002023F0700343F04703A36084E700BF34
:10205C00704700BF704700BF704700BF704700BF9C
:10206C00036810B51A690446910702D5DA6892071D
:10207C005FD41A69500702D5DA68510746D41A6939
:10208C00120702D5DA6810072ED41A69D20602D5C7
:10209C00DA68D00618D41A69D10702D5DA68D207E3
:1020AC005DD41A69100602D5DA6811065FD41A6974
:1020BC00520602D5DA68500661D41A69910602D527
:1020CC00DA68920643D410BD6FF010010822196132
:1020DC002277DB69204613F4407F64D0FFF7BAFF08
:1020EC00002223682277D6E76FF0080104221961D9
:1020FC002277DB692046990752D1FFF7A9FF2046CA
:10210C00FFF7AAFF002223682277BEE76FF00401D5
:10211C000222196122779B69204613F4407F3CD13F
:10212C00FFF796FF2046FFF797FF002223682277E0
:10213C00A5E76FF002010122196102779B699B07E9
:10214C0025D0FFF787FF00222368227791E76FF0F5
:10215C0020022046BDE810401A6100F0BBB96FF0B8
:10216C00010220461A61FEF77DFC236899E76FF0A7
:10217C00800220461A6100F0AFF9236897E76FF0F0
:10218C00400220461A61FFF769FF236895E7FFF7C5
:10219C005FFF2046FFF760FFD5E7FFF75BFFC4E763
:1021AC00FFF758FFAEE7FFF753FF2046FFF754FF4A
:1021BC0096E700BF224A30B49042036828D0B0F1B1
:1021CC00804F10D0A2F5943290420CD04D6923F080
:1021DC0080032B438C680A6803600123C46282620B
:1021EC0030BC436170474A6823F07003CC681343DA
:1021FC0023F440734A69234323F0800313438C6810
:10220C000A6803600123C462826230BC4361704778
:10221C004C6823F07003CA68234323F440731343C0
:10222C004A6923F08003134303608B6830BCC3629C
:10223C000B6883620B69036301234361704700BF22
:10224C00002C014050B310B590F83D30044603F01B
:10225C00FF02F3B10223214684F83D3051F8040B00
:10226C00FFF7A8FF012384F8463084F83E3084F849
:10227C003F3084F8403084F8413084F8423084F8A0
:10228C00433084F8443084F8453084F83D300020E5
:10229C0010BD80F83C20FEF7F7F9DBE70120704712
:1022AC0050B310B590F83D30044603F0FF02F3B183
:1022BC000223214684F83D3051F8040BFFF77AFFD6
:1022CC00012384F8463084F83E3084F83F3084F89B
:1022DC00403084F8413084F8423084F8433084F83C
:1022EC00443084F8453084F83D30002010BD80F82F
:1022FC003C20FFF7F9FDDBE701207047036A026A17
:10230C0070B422F010020262446882690E68114DAA
:10231C0022F4E64242EA06228E6823F02003A84209
:10232C0043EA061306D049684460826170BC81633D
:10233C0003627047CD6823F0800343EA051324F44D
:10234C004064D1E90556354323F0400344EA850443
:10235C00E9E700BF002C014038B590F83C30012B68
:10236C005ED0012304460D4680F83C300C2A08D878
:10237C00DFE802F01F0707073107070744070707C5
:10238C000C000120002384F83C3038BD0068FFF7B6
:10239C0005FD23682869D96941F40061D961D969BF
:1023AC0021F48061D961DA6942EA0022DA61002005
:1023BC00E8E70068FFF79CFC23682869996941F0FD
:1023CC0008019961996921F0040199619A690243A4
:1023DC009A610020D6E70068FFF790FF2368286910
:1023EC00996941F400619961996921F4806199615D
:1023FC009A6942EA00229A610020C3E70068FFF75D
:10240C00A1FC23682869D96941F00801D961D9690F
:10241C0021F00401D961DA690243DA610020B1E7E5
:10242C00022038BD90F83C20012A23D0034602201C
:10243C001A6830B483F83D0050680C680E4D20F0DB
:10244C0070002043AA429468506005D0B2F1804FCE
:10245C0002D00A48824204D1496824F080040C431B
:10246C0094600022012183F83C2083F83D10104633
:10247C0030BC704702207047002C01400004004023
:10248C0090F83C30012B23D00246D1E902034FF0E7
:10249C00000C23F440730343486823F48063034324
:1024AC00086823F400630343086923F4805310B4D1
:1024BC0003434C6923F40053C8692343116823F484
:1024CC00804303434B6482F83CC0604610BC7047A9
:1024DC0002207047704700BF704700BF70B50D4EAB
:1024EC000D4D761BB61006D0002455F8043B013474
:1024FC009847A642F9D1094E094D00F0D5F8761B44
:10250C00B61006D0002455F8043B01349847A64277
:10251C00F9D170BDF4260008F4260008FC2600084A
:10252C00F4260008830730B548D0541E002A3FD04B
:10253C000346CAB201E0013C3AD303F8012B9D07D4
:10254C00F9D1032C2DD9CDB245EA05250F2C45EA3E
:10255C00054536D9A4F1100222F00F0C03F1200E20
:10256C00E6444FEA121C03F1100242E9045542E919
:10257C00025510327245F8D10CF1010214F00C0F17
:10258C0003EB021204F00F0C13D0ACF1040323F094
:10259C0003030433134442F8045B9342FBD10CF065
:1025AC0003042CB1CAB21C4403F8012B9C42FBD18E
:1025BC0030BD64461346002CF4D1F9E703461446AB
:1025CC00BFE71A46A446E0E7024B13B1024800F0FD
:1025DC0005B8704700000000F525000800230146EF
:1025EC001A46184600F01AB838B5084B084D5B1B54
:1025FC009C1007D0043B1D44013C55F80439984706
:10260C00002CF9D1BDE8384000F054B80027000880
:10261C00FC260008704700BF704700BF2DE9F0474B
:10262C00DFF87CA00646DAF8000098460F46914683
:10263C00FFF7F0FF1B4B1B68D3F8484124B36568C8
:10264C001F2D26DC5EB96B1C0235DAF800006360C6
:10265C0044F82570FFF7E0FF0020BDE8F087012368
:10266C0004EB8501C1F88890D4F88821AB401A435B
:10267C00022EC4F88821C1F80881E4D1D4F88C2149
:10268C001343C4F88C31DEE703F5A674C3F8484154
:10269C00D5E7DAF80000FFF7BFFF4FF0FF30DCE7BB
:1026AC0040040020F0260008F8B500BFF8BC08BCB8
:1026BC009E467047F8B500BFF8BC08BC9E467047F4
:1026CC0000000000000000000102030406070809D6
:1026DC0002030405060708090A0B0C0D0E0F101057
:0826EC000102000018000020AB
:0826F400D525000831010008A2
:0426FC000D010008C4
:102700000024F400EEEEEEEEEEEEEE00900101009D
:102710001000000000000000000000000403002082
:102720006C030020D4030020000000000000000023
:102730000000000000000000000000000000000099
:102740000000000000000000000000000000000089
:102750000000000000000000000000000000000079
:102760000000000000000000000000000000000069
:102770000000000000000000000000000000000059
:102780000000000000000000000000000000000049
:102790000000000000000000000000000000000039
:1027A0000000000000000000000000000000000029
:1027B0000000000000000000000000000000000019
:1027C00001000000000000000E33CDAB34126DE6B6
:1027D000ECDE05000B00000000000000000000001F
:1027E00000000000000000000000000000000000E9
:1027F00000000000000000000000000000000000D9
:1028000000000000000000000000000000000000C8
:1028100000000000000000000000000000000000B8
:042B4000BC050020B0
:04000005080008895E
:00000001FF
